{
    "contractName": "ForsageBUSD",
    "contractAddress": "",
    "abi": [
        {
            "inputs": [],
            "stateMutability": "nonpayable",
            "type": "constructor"
        },
        {
            "anonymous": false,
            "inputs": [
                {
                    "indexed": true,
                    "internalType": "address",
                    "name": "receiver",
                    "type": "address"
                },
                {
                    "indexed": true,
                    "internalType": "address",
                    "name": "from",
                    "type": "address"
                },
                {
                    "indexed": false,
                    "internalType": "uint8",
                    "name": "matrix",
                    "type": "uint8"
                },
                {
                    "indexed": false,
                    "internalType": "uint8",
                    "name": "level",
                    "type": "uint8"
                }
            ],
            "name": "MissedEthReceive",
            "type": "event"
        },
        {
            "anonymous": false,
            "inputs": [
                {
                    "indexed": true,
                    "internalType": "address",
                    "name": "user",
                    "type": "address"
                },
                {
                    "indexed": true,
                    "internalType": "address",
                    "name": "referrer",
                    "type": "address"
                },
                {
                    "indexed": false,
                    "internalType": "uint8",
                    "name": "matrix",
                    "type": "uint8"
                },
                {
                    "indexed": false,
                    "internalType": "uint8",
                    "name": "level",
                    "type": "uint8"
                },
                {
                    "indexed": false,
                    "internalType": "uint8",
                    "name": "place",
                    "type": "uint8"
                }
            ],
            "name": "NewUserPlace",
            "type": "event"
        },
        {
            "anonymous": false,
            "inputs": [
                {
                    "indexed": true,
                    "internalType": "address",
                    "name": "previousOwner",
                    "type": "address"
                },
                {
                    "indexed": true,
                    "internalType": "address",
                    "name": "newOwner",
                    "type": "address"
                }
            ],
            "name": "OwnershipTransferred",
            "type": "event"
        },
        {
            "anonymous": false,
            "inputs": [
                {
                    "indexed": true,
                    "internalType": "address",
                    "name": "user",
                    "type": "address"
                },
                {
                    "indexed": true,
                    "internalType": "address",
                    "name": "referrer",
                    "type": "address"
                },
                {
                    "indexed": true,
                    "internalType": "uint256",
                    "name": "userId",
                    "type": "uint256"
                },
                {
                    "indexed": false,
                    "internalType": "uint256",
                    "name": "referrerId",
                    "type": "uint256"
                }
            ],
            "name": "Registration",
            "type": "event"
        },
        {
            "anonymous": false,
            "inputs": [
                {
                    "indexed": true,
                    "internalType": "address",
                    "name": "user",
                    "type": "address"
                },
                {
                    "indexed": true,
                    "internalType": "address",
                    "name": "currentReferrer",
                    "type": "address"
                },
                {
                    "indexed": true,
                    "internalType": "address",
                    "name": "caller",
                    "type": "address"
                },
                {
                    "indexed": false,
                    "internalType": "uint8",
                    "name": "matrix",
                    "type": "uint8"
                },
                {
                    "indexed": false,
                    "internalType": "uint8",
                    "name": "level",
                    "type": "uint8"
                }
            ],
            "name": "Reinvest",
            "type": "event"
        },
        {
            "anonymous": false,
            "inputs": [
                {
                    "indexed": true,
                    "internalType": "address",
                    "name": "from",
                    "type": "address"
                },
                {
                    "indexed": true,
                    "internalType": "address",
                    "name": "receiver",
                    "type": "address"
                },
                {
                    "indexed": false,
                    "internalType": "uint8",
                    "name": "matrix",
                    "type": "uint8"
                },
                {
                    "indexed": false,
                    "internalType": "uint8",
                    "name": "level",
                    "type": "uint8"
                }
            ],
            "name": "SentExtraEthDividends",
            "type": "event"
        },
        {
            "anonymous": false,
            "inputs": [
                {
                    "indexed": true,
                    "internalType": "address",
                    "name": "user",
                    "type": "address"
                },
                {
                    "indexed": true,
                    "internalType": "address",
                    "name": "referrer",
                    "type": "address"
                },
                {
                    "indexed": false,
                    "internalType": "uint8",
                    "name": "matrix",
                    "type": "uint8"
                },
                {
                    "indexed": false,
                    "internalType": "uint8",
                    "name": "level",
                    "type": "uint8"
                }
            ],
            "name": "Upgrade",
            "type": "event"
        },
        {
            "inputs": [],
            "name": "BUSD_DECIMALS",
            "outputs": [
                {
                    "internalType": "uint8",
                    "name": "",
                    "type": "uint8"
                }
            ],
            "stateMutability": "view",
            "type": "function"
        },
        {
            "inputs": [],
            "name": "LAST_LEVEL",
            "outputs": [
                {
                    "internalType": "uint8",
                    "name": "",
                    "type": "uint8"
                }
            ],
            "stateMutability": "view",
            "type": "function"
        },
        {
            "inputs": [],
            "name": "REG_COST",
            "outputs": [
                {
                    "internalType": "uint256",
                    "name": "",
                    "type": "uint256"
                }
            ],
            "stateMutability": "view",
            "type": "function"
        },
        {
            "inputs": [],
            "name": "bUsdInterface",
            "outputs": [
                {
                    "internalType": "contract ERC20",
                    "name": "",
                    "type": "address"
                }
            ],
            "stateMutability": "view",
            "type": "function"
        },
        {
            "inputs": [
                {
                    "internalType": "address",
                    "name": "",
                    "type": "address"
                }
            ],
            "name": "balances",
            "outputs": [
                {
                    "internalType": "uint256",
                    "name": "",
                    "type": "uint256"
                }
            ],
            "stateMutability": "view",
            "type": "function"
        },
        {
            "inputs": [
                {
                    "internalType": "uint256",
                    "name": "",
                    "type": "uint256"
                }
            ],
            "name": "idToAddress",
            "outputs": [
                {
                    "internalType": "address",
                    "name": "",
                    "type": "address"
                }
            ],
            "stateMutability": "view",
            "type": "function"
        },
        {
            "inputs": [],
            "name": "lastUserId",
            "outputs": [
                {
                    "internalType": "uint256",
                    "name": "",
                    "type": "uint256"
                }
            ],
            "stateMutability": "view",
            "type": "function"
        },
        {
            "inputs": [
                {
                    "internalType": "uint8",
                    "name": "",
                    "type": "uint8"
                }
            ],
            "name": "levelPrice",
            "outputs": [
                {
                    "internalType": "uint256",
                    "name": "",
                    "type": "uint256"
                }
            ],
            "stateMutability": "view",
            "type": "function"
        },
        {
            "inputs": [],
            "name": "owner",
            "outputs": [
                {
                    "internalType": "address",
                    "name": "",
                    "type": "address"
                }
            ],
            "stateMutability": "view",
            "type": "function"
        },
        {
            "inputs": [],
            "name": "renounceOwnership",
            "outputs": [],
            "stateMutability": "nonpayable",
            "type": "function"
        },
        {
            "inputs": [
                {
                    "internalType": "address",
                    "name": "newOwner",
                    "type": "address"
                }
            ],
            "name": "transferOwnership",
            "outputs": [],
            "stateMutability": "nonpayable",
            "type": "function"
        },
        {
            "inputs": [
                {
                    "internalType": "uint256",
                    "name": "",
                    "type": "uint256"
                }
            ],
            "name": "userIds",
            "outputs": [
                {
                    "internalType": "address",
                    "name": "",
                    "type": "address"
                }
            ],
            "stateMutability": "view",
            "type": "function"
        },
        {
            "inputs": [
                {
                    "internalType": "address",
                    "name": "",
                    "type": "address"
                }
            ],
            "name": "users",
            "outputs": [
                {
                    "internalType": "uint256",
                    "name": "id",
                    "type": "uint256"
                },
                {
                    "internalType": "address",
                    "name": "referrer",
                    "type": "address"
                },
                {
                    "internalType": "uint256",
                    "name": "partnersCount",
                    "type": "uint256"
                }
            ],
            "stateMutability": "view",
            "type": "function"
        },
        {
            "inputs": [
                {
                    "internalType": "address",
                    "name": "busdContractAddress",
                    "type": "address"
                }
            ],
            "name": "initBusdInterface",
            "outputs": [],
            "stateMutability": "nonpayable",
            "type": "function"
        },
        {
            "inputs": [
                {
                    "internalType": "address",
                    "name": "referrerAddress",
                    "type": "address"
                }
            ],
            "name": "registrationExt",
            "outputs": [],
            "stateMutability": "nonpayable",
            "type": "function"
        },
        {
            "inputs": [
                {
                    "internalType": "uint8",
                    "name": "matrix",
                    "type": "uint8"
                },
                {
                    "internalType": "uint8",
                    "name": "level",
                    "type": "uint8"
                }
            ],
            "name": "buyNewLevel",
            "outputs": [],
            "stateMutability": "payable",
            "type": "function"
        },
        {
            "inputs": [
                {
                    "internalType": "address",
                    "name": "userAddress",
                    "type": "address"
                },
                {
                    "internalType": "uint8",
                    "name": "level",
                    "type": "uint8"
                }
            ],
            "name": "findFreeX3Referrer",
            "outputs": [
                {
                    "internalType": "address",
                    "name": "",
                    "type": "address"
                }
            ],
            "stateMutability": "view",
            "type": "function"
        },
        {
            "inputs": [
                {
                    "internalType": "address",
                    "name": "userAddress",
                    "type": "address"
                },
                {
                    "internalType": "uint8",
                    "name": "level",
                    "type": "uint8"
                }
            ],
            "name": "findFreeX6Referrer",
            "outputs": [
                {
                    "internalType": "address",
                    "name": "",
                    "type": "address"
                }
            ],
            "stateMutability": "view",
            "type": "function"
        },
        {
            "inputs": [
                {
                    "internalType": "address",
                    "name": "userAddress",
                    "type": "address"
                },
                {
                    "internalType": "uint8",
                    "name": "level",
                    "type": "uint8"
                }
            ],
            "name": "usersActiveX3Levels",
            "outputs": [
                {
                    "internalType": "bool",
                    "name": "",
                    "type": "bool"
                }
            ],
            "stateMutability": "view",
            "type": "function"
        },
        {
            "inputs": [
                {
                    "internalType": "address",
                    "name": "userAddress",
                    "type": "address"
                },
                {
                    "internalType": "uint8",
                    "name": "level",
                    "type": "uint8"
                }
            ],
            "name": "usersActiveX6Levels",
            "outputs": [
                {
                    "internalType": "bool",
                    "name": "",
                    "type": "bool"
                }
            ],
            "stateMutability": "view",
            "type": "function"
        },
        {
            "inputs": [
                {
                    "internalType": "address",
                    "name": "userAddress",
                    "type": "address"
                },
                {
                    "internalType": "uint8",
                    "name": "level",
                    "type": "uint8"
                }
            ],
            "name": "usersX3Matrix",
            "outputs": [
                {
                    "internalType": "address",
                    "name": "",
                    "type": "address"
                },
                {
                    "internalType": "address[]",
                    "name": "",
                    "type": "address[]"
                },
                {
                    "internalType": "bool",
                    "name": "",
                    "type": "bool"
                }
            ],
            "stateMutability": "view",
            "type": "function"
        },
        {
            "inputs": [
                {
                    "internalType": "address",
                    "name": "userAddress",
                    "type": "address"
                },
                {
                    "internalType": "uint8",
                    "name": "level",
                    "type": "uint8"
                }
            ],
            "name": "usersX6Matrix",
            "outputs": [
                {
                    "internalType": "address",
                    "name": "",
                    "type": "address"
                },
                {
                    "internalType": "address[]",
                    "name": "",
                    "type": "address[]"
                },
                {
                    "internalType": "address[]",
                    "name": "",
                    "type": "address[]"
                },
                {
                    "internalType": "bool",
                    "name": "",
                    "type": "bool"
                },
                {
                    "internalType": "address",
                    "name": "",
                    "type": "address"
                }
            ],
            "stateMutability": "view",
            "type": "function"
        },
        {
            "inputs": [
                {
                    "internalType": "address",
                    "name": "user",
                    "type": "address"
                }
            ],
            "name": "isUserExists",
            "outputs": [
                {
                    "internalType": "bool",
                    "name": "",
                    "type": "bool"
                }
            ],
            "stateMutability": "view",
            "type": "function"
        }
    ],
    "bytecode": "0x608060405260026005553480156200001657600080fd5b506000620000296200043c60201b60201c565b9050806000806101000a81548173ffffffffffffffffffffffffffffffffffffffff021916908373ffffffffffffffffffffffffffffffffffffffff1602179055508073ffffffffffffffffffffffffffffffffffffffff16600073ffffffffffffffffffffffffffffffffffffffff167f8be0079c531659141344cd1fd0a4f28419497f9722a3daafe3b4186f6b6457e060405160405180910390a350620000ff60026012600a620000dd919062000518565b600a620000eb919062000655565b6200044460201b62001dc61790919060201c565b60066000600160ff168152602001908152602001600020819055506000600290505b600c60ff168160ff16116200019957600260066000600184620001459190620006b6565b60ff1660ff1681526020019081526020016000205462000166919062000655565b600660008360ff1660ff168152602001908152602001600020819055508080620001909062000708565b91505062000121565b50600060016000620001b06200045c60201b60201c565b73ffffffffffffffffffffffffffffffffffffffff1673ffffffffffffffffffffffffffffffffffffffff16815260200190815260200160002090506001816000018190555060008160010160006101000a81548173ffffffffffffffffffffffffffffffffffffffff021916908373ffffffffffffffffffffffffffffffffffffffff16021790555060008160020181905550620002546200045c60201b60201c565b600260006001815260200190815260200160002060006101000a81548173ffffffffffffffffffffffffffffffffffffffff021916908373ffffffffffffffffffffffffffffffffffffffff1602179055506000600190505b600c60ff168160ff1611620003d2576001806000620002d16200045c60201b60201c565b73ffffffffffffffffffffffffffffffffffffffff1673ffffffffffffffffffffffffffffffffffffffff16815260200190815260200160002060030160008360ff1660ff16815260200190815260200160002060006101000a81548160ff0219169083151502179055506001806000620003516200045c60201b60201c565b73ffffffffffffffffffffffffffffffffffffffff1673ffffffffffffffffffffffffffffffffffffffff16815260200190815260200160002060040160008360ff1660ff16815260200190815260200160002060006101000a81548160ff0219169083151502179055508080620003c99062000708565b915050620002ad565b50620003e36200045c60201b60201c565b600360006001815260200190815260200160002060006101000a81548173ffffffffffffffffffffffffffffffffffffffff021916908373ffffffffffffffffffffffffffffffffffffffff16021790555050620007a2565b600033905090565b6000818362000454919062000485565b905092915050565b60008060009054906101000a900473ffffffffffffffffffffffffffffffffffffffff16905090565b60006200049282620006f1565b91506200049f83620006f1565b925082620004b257620004b162000766565b5b828204905092915050565b6000808291508390505b60018511156200050f57808604811115620004e757620004e662000737565b5b6001851615620004f75780820291505b8081029050620005078562000795565b9450620004c7565b94509492505050565b60006200052582620006f1565b91506200053283620006fb565b9250620005617fffffffffffffffffffffffffffffffffffffffffffffffffffffffffffffffff848462000569565b905092915050565b6000826200057b57600190506200064e565b816200058b57600090506200064e565b8160018114620005a45760028114620005af57620005e5565b60019150506200064e565b60ff841115620005c457620005c362000737565b5b8360020a915084821115620005de57620005dd62000737565b5b506200064e565b5060208310610133831016604e8410600b84101617156200061f5782820a90508381111562000619576200061862000737565b5b6200064e565b6200062e8484846001620004bd565b9250905081840481111562000648576200064762000737565b5b81810290505b9392505050565b60006200066282620006f1565b91506200066f83620006f1565b9250817fffffffffffffffffffffffffffffffffffffffffffffffffffffffffffffffff0483118215151615620006ab57620006aa62000737565b5b828202905092915050565b6000620006c382620006fb565b9150620006d083620006fb565b925082821015620006e657620006e562000737565b5b828203905092915050565b6000819050919050565b600060ff82169050919050565b60006200071582620006fb565b915060ff8214156200072c576200072b62000737565b5b600182019050919050565b7f4e487b7100000000000000000000000000000000000000000000000000000000600052601160045260246000fd5b7f4e487b7100000000000000000000000000000000000000000000000000000000600052601260045260246000fd5b60008160011c9050919050565b61742b80620007b26000396000f3fe6080604052600436106101405760003560e01c8063797eee24116100b6578063b2f7543a1161006f578063b2f7543a146104a0578063be389d57146104dd578063e06e8dbd146104f9578063ecabdf7914610536578063f2fde38b14610573578063fa45323d1461059c57610140565b8063797eee241461036457806383ba31b21461038d5780638da5cb5b146103cc5780639cc102fc146103f75780639ce680be14610438578063a87430ba1461046157610140565b8063348d448711610108578063348d448714610252578063454bf56e1461027d5780634635fd68146102a8578063509222cd146102e55780636cbacee714610322578063715018a61461034d57610140565b806307279e2a1461014557806315f8e0611461018257806327e235e3146101ad57806329c70400146101ea5780632a2d0c4714610215575b600080fd5b34801561015157600080fd5b5061016c600480360381019061016791906163cb565b6105d9565b60405161017991906168f8565b60405180910390f35b34801561018e57600080fd5b5061019761064a565b6040516101a49190616cd3565b60405180910390f35b3480156101b957600080fd5b506101d460048036038101906101cf91906163a2565b61064f565b6040516101e19190616c81565b60405180910390f35b3480156101f657600080fd5b506101ff610667565b60405161020c9190616cd3565b60405180910390f35b34801561022157600080fd5b5061023c60048036038101906102379190616430565b61066c565b60405161024991906167b5565b60405180910390f35b34801561025e57600080fd5b5061026761069f565b6040516102749190616c81565b60405180910390f35b34801561028957600080fd5b506102926106a5565b60405161029f9190616913565b60405180910390f35b3480156102b457600080fd5b506102cf60048036038101906102ca9190616430565b6106cb565b6040516102dc91906167b5565b60405180910390f35b3480156102f157600080fd5b5061030c600480360381019061030791906163a2565b6106fe565b60405161031991906168f8565b60405180910390f35b34801561032e57600080fd5b5061033761074d565b6040516103449190616c81565b60405180910390f35b34801561035957600080fd5b5061036261076a565b005b34801561037057600080fd5b5061038b600480360381019061038691906163a2565b6108a4565b005b34801561039957600080fd5b506103b460048036038101906103af91906163cb565b6108b8565b6040516103c393929190616891565b60405180910390f35b3480156103d857600080fd5b506103e1610a96565b6040516103ee91906167b5565b60405180910390f35b34801561040357600080fd5b5061041e600480360381019061041991906163cb565b610abf565b60405161042f959493929190616830565b60405180910390f35b34801561044457600080fd5b5061045f600480360381019061045a91906163a2565b610e07565b005b34801561046d57600080fd5b50610488600480360381019061048391906163a2565b610ec7565b60405161049793929190616c9c565b60405180910390f35b3480156104ac57600080fd5b506104c760048036038101906104c291906163cb565b610f11565b6040516104d491906168f8565b60405180910390f35b6104f760048036038101906104f291906164ab565b610f82565b005b34801561050557600080fd5b50610520600480360381019061051b91906163cb565b6118a7565b60405161052d91906167b5565b60405180910390f35b34801561054257600080fd5b5061055d60048036038101906105589190616482565b611a56565b60405161056a9190616c81565b60405180910390f35b34801561057f57600080fd5b5061059a600480360381019061059591906163a2565b611a6e565b005b3480156105a857600080fd5b506105c360048036038101906105be91906163cb565b611c17565b6040516105d091906167b5565b60405180910390f35b6000600160008473ffffffffffffffffffffffffffffffffffffffff1673ffffffffffffffffffffffffffffffffffffffff16815260200190815260200160002060030160008360ff1660ff16815260200190815260200160002060009054906101000a900460ff16905092915050565b601281565b60046020528060005260406000206000915090505481565b600c81565b60026020528060005260406000206000915054906101000a900473ffffffffffffffffffffffffffffffffffffffff1681565b60055481565b600760009054906101000a900473ffffffffffffffffffffffffffffffffffffffff1681565b60036020528060005260406000206000915054906101000a900473ffffffffffffffffffffffffffffffffffffffff1681565b600080600160008473ffffffffffffffffffffffffffffffffffffffff1673ffffffffffffffffffffffffffffffffffffffff1681526020019081526020016000206000015414159050919050565b6012600a61075b9190616e1c565b600a6107679190616f3a565b81565b610772611ddc565b73ffffffffffffffffffffffffffffffffffffffff16610790610a96565b73ffffffffffffffffffffffffffffffffffffffff16146107e6576040517f08c379a00000000000000000000000000000000000000000000000000000000081526004016107dd90616bc1565b60405180910390fd5b600073ffffffffffffffffffffffffffffffffffffffff1660008054906101000a900473ffffffffffffffffffffffffffffffffffffffff1673ffffffffffffffffffffffffffffffffffffffff167f8be0079c531659141344cd1fd0a4f28419497f9722a3daafe3b4186f6b6457e060405160405180910390a360008060006101000a81548173ffffffffffffffffffffffffffffffffffffffff021916908373ffffffffffffffffffffffffffffffffffffffff160217905550565b6108b56108af611ddc565b82611de4565b50565b600060606000600160008673ffffffffffffffffffffffffffffffffffffffff1673ffffffffffffffffffffffffffffffffffffffff16815260200190815260200160002060050160008560ff1660ff16815260200190815260200160002060000160009054906101000a900473ffffffffffffffffffffffffffffffffffffffff16600160008773ffffffffffffffffffffffffffffffffffffffff1673ffffffffffffffffffffffffffffffffffffffff16815260200190815260200160002060050160008660ff1660ff168152602001908152602001600020600101600160008873ffffffffffffffffffffffffffffffffffffffff1673ffffffffffffffffffffffffffffffffffffffff16815260200190815260200160002060050160008760ff1660ff16815260200190815260200160002060020160009054906101000a900460ff1681805480602002602001604051908101604052809291908181526020018280548015610a8257602002820191906000526020600020905b8160009054906101000a900473ffffffffffffffffffffffffffffffffffffffff1673ffffffffffffffffffffffffffffffffffffffff1681526020019060010190808311610a38575b505050505091509250925092509250925092565b60008060009054906101000a900473ffffffffffffffffffffffffffffffffffffffff16905090565b6000606080600080600160008873ffffffffffffffffffffffffffffffffffffffff1673ffffffffffffffffffffffffffffffffffffffff16815260200190815260200160002060060160008760ff1660ff16815260200190815260200160002060000160009054906101000a900473ffffffffffffffffffffffffffffffffffffffff16600160008973ffffffffffffffffffffffffffffffffffffffff1673ffffffffffffffffffffffffffffffffffffffff16815260200190815260200160002060060160008860ff1660ff168152602001908152602001600020600101600160008a73ffffffffffffffffffffffffffffffffffffffff1673ffffffffffffffffffffffffffffffffffffffff16815260200190815260200160002060060160008960ff1660ff168152602001908152602001600020600201600160008b73ffffffffffffffffffffffffffffffffffffffff1673ffffffffffffffffffffffffffffffffffffffff16815260200190815260200160002060060160008a60ff1660ff16815260200190815260200160002060030160009054906101000a900460ff16600160008c73ffffffffffffffffffffffffffffffffffffffff1673ffffffffffffffffffffffffffffffffffffffff16815260200190815260200160002060060160008b60ff1660ff16815260200190815260200160002060050160009054906101000a900473ffffffffffffffffffffffffffffffffffffffff1683805480602002602001604051908101604052809291908181526020018280548015610d6457602002820191906000526020600020905b8160009054906101000a900473ffffffffffffffffffffffffffffffffffffffff1673ffffffffffffffffffffffffffffffffffffffff1681526020019060010190808311610d1a575b5050505050935082805480602002602001604051908101604052809291908181526020018280548015610dec57602002820191906000526020600020905b8160009054906101000a900473ffffffffffffffffffffffffffffffffffffffff1673ffffffffffffffffffffffffffffffffffffffff1681526020019060010190808311610da2575b50505050509250945094509450945094509295509295909350565b610e0f611ddc565b73ffffffffffffffffffffffffffffffffffffffff16610e2d610a96565b73ffffffffffffffffffffffffffffffffffffffff1614610e83576040517f08c379a0000000000000000000000000000000000000000000000000000000008152600401610e7a90616bc1565b60405180910390fd5b80600760006101000a81548173ffffffffffffffffffffffffffffffffffffffff021916908373ffffffffffffffffffffffffffffffffffffffff16021790555050565b60016020528060005260406000206000915090508060000154908060010160009054906101000a900473ffffffffffffffffffffffffffffffffffffffff16908060020154905083565b6000600160008473ffffffffffffffffffffffffffffffffffffffff1673ffffffffffffffffffffffffffffffffffffffff16815260200190815260200160002060040160008360ff1660ff16815260200190815260200160002060009054906101000a900460ff16905092915050565b610f92610f8d611ddc565b6106fe565b610fd1576040517f08c379a0000000000000000000000000000000000000000000000000000000008152600401610fc890616b01565b60405180910390fd5b60018260ff161480610fe6575060028260ff16145b611025576040517f08c379a000000000000000000000000000000000000000000000000000000000815260040161101c90616ba1565b60405180910390fd5b600660008260ff1660ff16815260200190815260200160002054600760009054906101000a900473ffffffffffffffffffffffffffffffffffffffff1673ffffffffffffffffffffffffffffffffffffffff1663dd62ed3e611085611ddc565b306040518363ffffffff1660e01b81526004016110a39291906167d0565b60206040518083038186803b1580156110bb57600080fd5b505afa1580156110cf573d6000803e3d6000fd5b505050506040513d601f19601f820116820180604052508101906110f39190616459565b1015611134576040517f08c379a000000000000000000000000000000000000000000000000000000000815260040161112b90616b81565b60405180910390fd5b60018160ff1611801561114e5750600c60ff168160ff1611155b61118d576040517f08c379a000000000000000000000000000000000000000000000000000000000815260040161118490616b61565b60405180910390fd5b600760009054906101000a900473ffffffffffffffffffffffffffffffffffffffff1673ffffffffffffffffffffffffffffffffffffffff166323b872dd6111d3611ddc565b30600660008660ff1660ff168152602001908152602001600020546040518463ffffffff1660e01b815260040161120c939291906167f9565b602060405180830381600087803b15801561122657600080fd5b505af115801561123a573d6000803e3d6000fd5b505050506040513d601f19601f8201168201806040525081019061125e9190616407565b5060018260ff1614156115da5760016000611277611ddc565b73ffffffffffffffffffffffffffffffffffffffff1673ffffffffffffffffffffffffffffffffffffffff16815260200190815260200160002060030160008260ff1660ff16815260200190815260200160002060009054906101000a900460ff1615611319576040517f08c379a000000000000000000000000000000000000000000000000000000000815260040161131090616c61565b60405180910390fd5b60016000611325611ddc565b73ffffffffffffffffffffffffffffffffffffffff1673ffffffffffffffffffffffffffffffffffffffff16815260200190815260200160002060050160006001836113719190616f94565b60ff1660ff16815260200190815260200160002060020160009054906101000a900460ff1615611424576000600160006113a9611ddc565b73ffffffffffffffffffffffffffffffffffffffff1673ffffffffffffffffffffffffffffffffffffffff16815260200190815260200160002060050160006001846113f59190616f94565b60ff1660ff16815260200190815260200160002060020160006101000a81548160ff0219169083151502179055505b6000611437611431611ddc565b83611c17565b90508060016000611446611ddc565b73ffffffffffffffffffffffffffffffffffffffff1673ffffffffffffffffffffffffffffffffffffffff16815260200190815260200160002060050160008460ff1660ff16815260200190815260200160002060000160006101000a81548173ffffffffffffffffffffffffffffffffffffffff021916908373ffffffffffffffffffffffffffffffffffffffff16021790555060018060006114e8611ddc565b73ffffffffffffffffffffffffffffffffffffffff1673ffffffffffffffffffffffffffffffffffffffff16815260200190815260200160002060030160008460ff1660ff16815260200190815260200160002060006101000a81548160ff02191690831515021790555061156561155e611ddc565b82846124ac565b8073ffffffffffffffffffffffffffffffffffffffff16611584611ddc565b73ffffffffffffffffffffffffffffffffffffffff167f18a92df19fd94d6cfff209966673a5ca05a1c8e2bb68e097fce2bdc2ed8111196001856040516115cc92919061692e565b60405180910390a3506118a3565b600160006115e6611ddc565b73ffffffffffffffffffffffffffffffffffffffff1673ffffffffffffffffffffffffffffffffffffffff16815260200190815260200160002060040160008260ff1660ff16815260200190815260200160002060009054906101000a900460ff1615611688576040517f08c379a000000000000000000000000000000000000000000000000000000000815260040161167f90616c61565b60405180910390fd5b60016000611694611ddc565b73ffffffffffffffffffffffffffffffffffffffff1673ffffffffffffffffffffffffffffffffffffffff16815260200190815260200160002060060160006001836116e09190616f94565b60ff1660ff16815260200190815260200160002060030160009054906101000a900460ff161561179357600060016000611718611ddc565b73ffffffffffffffffffffffffffffffffffffffff1673ffffffffffffffffffffffffffffffffffffffff16815260200190815260200160002060060160006001846117649190616f94565b60ff1660ff16815260200190815260200160002060030160006101000a81548160ff0219169083151502179055505b60006117a66117a0611ddc565b836118a7565b905060018060006117b5611ddc565b73ffffffffffffffffffffffffffffffffffffffff1673ffffffffffffffffffffffffffffffffffffffff16815260200190815260200160002060040160008460ff1660ff16815260200190815260200160002060006101000a81548160ff02191690831515021790555061183261182b611ddc565b8284612ca8565b8073ffffffffffffffffffffffffffffffffffffffff16611851611ddc565b73ffffffffffffffffffffffffffffffffffffffff167f18a92df19fd94d6cfff209966673a5ca05a1c8e2bb68e097fce2bdc2ed8111196002856040516118999291906169c5565b60405180910390a3505b5050565b600060016000600160008673ffffffffffffffffffffffffffffffffffffffff1673ffffffffffffffffffffffffffffffffffffffff16815260200190815260200160002060010160009054906101000a900473ffffffffffffffffffffffffffffffffffffffff1673ffffffffffffffffffffffffffffffffffffffff1673ffffffffffffffffffffffffffffffffffffffff16815260200190815260200160002060040160008360ff1660ff16815260200190815260200160002060009054906101000a900460ff16156119e157600160008473ffffffffffffffffffffffffffffffffffffffff1673ffffffffffffffffffffffffffffffffffffffff16815260200190815260200160002060010160009054906101000a900473ffffffffffffffffffffffffffffffffffffffff169050611a50565b611a4d600160008573ffffffffffffffffffffffffffffffffffffffff1673ffffffffffffffffffffffffffffffffffffffff16815260200190815260200160002060010160009054906101000a900473ffffffffffffffffffffffffffffffffffffffff16836118a7565b90505b92915050565b60066020528060005260406000206000915090505481565b611a76611ddc565b73ffffffffffffffffffffffffffffffffffffffff16611a94610a96565b73ffffffffffffffffffffffffffffffffffffffff1614611aea576040517f08c379a0000000000000000000000000000000000000000000000000000000008152600401611ae190616bc1565b60405180910390fd5b600073ffffffffffffffffffffffffffffffffffffffff168173ffffffffffffffffffffffffffffffffffffffff161415611b5a576040517f08c379a0000000000000000000000000000000000000000000000000000000008152600401611b5190616b21565b60405180910390fd5b8073ffffffffffffffffffffffffffffffffffffffff1660008054906101000a900473ffffffffffffffffffffffffffffffffffffffff1673ffffffffffffffffffffffffffffffffffffffff167f8be0079c531659141344cd1fd0a4f28419497f9722a3daafe3b4186f6b6457e060405160405180910390a3806000806101000a81548173ffffffffffffffffffffffffffffffffffffffff021916908373ffffffffffffffffffffffffffffffffffffffff16021790555050565b600060016000600160008673ffffffffffffffffffffffffffffffffffffffff1673ffffffffffffffffffffffffffffffffffffffff16815260200190815260200160002060010160009054906101000a900473ffffffffffffffffffffffffffffffffffffffff1673ffffffffffffffffffffffffffffffffffffffff1673ffffffffffffffffffffffffffffffffffffffff16815260200190815260200160002060030160008360ff1660ff16815260200190815260200160002060009054906101000a900460ff1615611d5157600160008473ffffffffffffffffffffffffffffffffffffffff1673ffffffffffffffffffffffffffffffffffffffff16815260200190815260200160002060010160009054906101000a900473ffffffffffffffffffffffffffffffffffffffff169050611dc0565b611dbd600160008573ffffffffffffffffffffffffffffffffffffffff1673ffffffffffffffffffffffffffffffffffffffff16815260200190815260200160002060010160009054906101000a900473ffffffffffffffffffffffffffffffffffffffff1683611c17565b90505b92915050565b60008183611dd49190616d98565b905092915050565b600033905090565b6012600a611df29190616e1c565b600a611dfe9190616f3a565b600760009054906101000a900473ffffffffffffffffffffffffffffffffffffffff1673ffffffffffffffffffffffffffffffffffffffff1663dd62ed3e84306040518363ffffffff1660e01b8152600401611e5b9291906167d0565b60206040518083038186803b158015611e7357600080fd5b505afa158015611e87573d6000803e3d6000fd5b505050506040513d601f19601f82011682018060405250810190611eab9190616459565b1015611eec576040517f08c379a0000000000000000000000000000000000000000000000000000000008152600401611ee390616c41565b60405180910390fd5b611ef5826106fe565b15611f35576040517f08c379a0000000000000000000000000000000000000000000000000000000008152600401611f2c90616b41565b60405180910390fd5b611f3e816106fe565b611f7d576040517f08c379a0000000000000000000000000000000000000000000000000000000008152600401611f7490616be1565b60405180910390fd5b600760009054906101000a900473ffffffffffffffffffffffffffffffffffffffff1673ffffffffffffffffffffffffffffffffffffffff166323b872dd83306012600a611fcb9190616e1c565b600a611fd79190616f3a565b6040518463ffffffff1660e01b8152600401611ff5939291906167f9565b602060405180830381600087803b15801561200f57600080fd5b505af1158015612023573d6000803e3d6000fd5b505050506040513d601f19601f820116820180604052508101906120479190616407565b506000823b905060008163ffffffff1614612097576040517f08c379a000000000000000000000000000000000000000000000000000000000815260040161208e90616c01565b60405180910390fd5b6000600160008573ffffffffffffffffffffffffffffffffffffffff1673ffffffffffffffffffffffffffffffffffffffff16815260200190815260200160002090506005548160000181905550828160010160006101000a81548173ffffffffffffffffffffffffffffffffffffffff021916908373ffffffffffffffffffffffffffffffffffffffff160217905550600081600201819055508360026000600554815260200190815260200160002060006101000a81548173ffffffffffffffffffffffffffffffffffffffff021916908373ffffffffffffffffffffffffffffffffffffffff160217905550828160010160006101000a81548173ffffffffffffffffffffffffffffffffffffffff021916908373ffffffffffffffffffffffffffffffffffffffff1602179055506001816003016000600160ff16815260200190815260200160002060006101000a81548160ff0219169083151502179055506001816004016000600160ff16815260200190815260200160002060006101000a81548160ff0219169083151502179055508360036000600554815260200190815260200160002060006101000a81548173ffffffffffffffffffffffffffffffffffffffff021916908373ffffffffffffffffffffffffffffffffffffffff16021790555060056000815480929190612294906170ad565b9190505550600160008473ffffffffffffffffffffffffffffffffffffffff1673ffffffffffffffffffffffffffffffffffffffff16815260200190815260200160002060020160008154809291906122ec906170ad565b919050555060006122fe856001611c17565b905080600160008773ffffffffffffffffffffffffffffffffffffffff1673ffffffffffffffffffffffffffffffffffffffff1681526020019081526020016000206005016000600160ff16815260200190815260200160002060000160006101000a81548173ffffffffffffffffffffffffffffffffffffffff021916908373ffffffffffffffffffffffffffffffffffffffff1602179055506123a5858260016124ac565b6123bb856123b48760016118a7565b6001612ca8565b600160008673ffffffffffffffffffffffffffffffffffffffff1673ffffffffffffffffffffffffffffffffffffffff168152602001908152602001600020600001548473ffffffffffffffffffffffffffffffffffffffff168673ffffffffffffffffffffffffffffffffffffffff167f309bb360e8b69c23937ccc5fb01f9aeeead1c95a99604e175113ff82f2b1723a600160008973ffffffffffffffffffffffffffffffffffffffff1673ffffffffffffffffffffffffffffffffffffffff1681526020019081526020016000206000015460405161249d9190616c81565b60405180910390a45050505050565b600160008373ffffffffffffffffffffffffffffffffffffffff1673ffffffffffffffffffffffffffffffffffffffff16815260200190815260200160002060050160008260ff1660ff168152602001908152602001600020600101839080600181540180825580915050600190039060005260206000200160009091909190916101000a81548173ffffffffffffffffffffffffffffffffffffffff021916908373ffffffffffffffffffffffffffffffffffffffff1602179055506003600160008473ffffffffffffffffffffffffffffffffffffffff1673ffffffffffffffffffffffffffffffffffffffff16815260200190815260200160002060050160008360ff1660ff1681526020019081526020016000206001018054905010156126ac578173ffffffffffffffffffffffffffffffffffffffff168373ffffffffffffffffffffffffffffffffffffffff167f68062c5925c4317adf3a7095478d28b33fd8b41458bc7620b61bc46bf1b24d82600184600160008873ffffffffffffffffffffffffffffffffffffffff1673ffffffffffffffffffffffffffffffffffffffff16815260200190815260200160002060050160008760ff1660ff168152602001908152602001600020600101805490506040516126929392919061698e565b60405180910390a36126a78284600184614497565b612ca3565b8173ffffffffffffffffffffffffffffffffffffffff168373ffffffffffffffffffffffffffffffffffffffff167f68062c5925c4317adf3a7095478d28b33fd8b41458bc7620b61bc46bf1b24d82600184600360405161270f93929190616957565b60405180910390a3600067ffffffffffffffff811115612758577f4e487b7100000000000000000000000000000000000000000000000000000000600052604160045260246000fd5b6040519080825280602002602001820160405280156127865781602001602082028036833780820191505090505b50600160008473ffffffffffffffffffffffffffffffffffffffff1673ffffffffffffffffffffffffffffffffffffffff16815260200190815260200160002060050160008360ff1660ff16815260200190815260200160002060010190805190602001906127f6929190616292565b50600160008373ffffffffffffffffffffffffffffffffffffffff1673ffffffffffffffffffffffffffffffffffffffff16815260200190815260200160002060030160006001836128489190616d61565b60ff1660ff16815260200190815260200160002060009054906101000a900460ff1615801561287e5750600c60ff168160ff1614155b156128f85760018060008473ffffffffffffffffffffffffffffffffffffffff1673ffffffffffffffffffffffffffffffffffffffff16815260200190815260200160002060050160008360ff1660ff16815260200190815260200160002060020160006101000a81548160ff0219169083151502179055505b612900610a96565b73ffffffffffffffffffffffffffffffffffffffff168273ffffffffffffffffffffffffffffffffffffffff1614612b8d57600061293e8383611c17565b90508073ffffffffffffffffffffffffffffffffffffffff16600160008573ffffffffffffffffffffffffffffffffffffffff1673ffffffffffffffffffffffffffffffffffffffff16815260200190815260200160002060050160008460ff1660ff16815260200190815260200160002060000160009054906101000a900473ffffffffffffffffffffffffffffffffffffffff1673ffffffffffffffffffffffffffffffffffffffff1614612a8b5780600160008573ffffffffffffffffffffffffffffffffffffffff1673ffffffffffffffffffffffffffffffffffffffff16815260200190815260200160002060050160008460ff1660ff16815260200190815260200160002060000160006101000a81548173ffffffffffffffffffffffffffffffffffffffff021916908373ffffffffffffffffffffffffffffffffffffffff1602179055505b600160008473ffffffffffffffffffffffffffffffffffffffff1673ffffffffffffffffffffffffffffffffffffffff16815260200190815260200160002060050160008360ff1660ff1681526020019081526020016000206003016000815480929190612af8906170ad565b91905055508373ffffffffffffffffffffffffffffffffffffffff168173ffffffffffffffffffffffffffffffffffffffff168473ffffffffffffffffffffffffffffffffffffffff167fa00c953eff38ec1b71e7fe060b2ab8df0bbe5354319fbdde4fbdafd6324386a6600186604051612b7492919061692e565b60405180910390a4612b878382846124ac565b50612ca2565b612ba1612b98610a96565b84600184614497565b60016000612bad610a96565b73ffffffffffffffffffffffffffffffffffffffff1673ffffffffffffffffffffffffffffffffffffffff16815260200190815260200160002060050160008260ff1660ff1681526020019081526020016000206003016000815480929190612c15906170ad565b91905055508273ffffffffffffffffffffffffffffffffffffffff16600073ffffffffffffffffffffffffffffffffffffffff16612c51610a96565b73ffffffffffffffffffffffffffffffffffffffff167fa00c953eff38ec1b71e7fe060b2ab8df0bbe5354319fbdde4fbdafd6324386a6600185604051612c9992919061692e565b60405180910390a45b5b505050565b600160008373ffffffffffffffffffffffffffffffffffffffff1673ffffffffffffffffffffffffffffffffffffffff16815260200190815260200160002060040160008260ff1660ff16815260200190815260200160002060009054906101000a900460ff16612d4e576040517f08c379a0000000000000000000000000000000000000000000000000000000008152600401612d4590616c21565b60405180910390fd5b6002600160008473ffffffffffffffffffffffffffffffffffffffff1673ffffffffffffffffffffffffffffffffffffffff16815260200190815260200160002060060160008360ff1660ff1681526020019081526020016000206001018054905010156139ac57600160008373ffffffffffffffffffffffffffffffffffffffff1673ffffffffffffffffffffffffffffffffffffffff16815260200190815260200160002060060160008260ff1660ff168152602001908152602001600020600101839080600181540180825580915050600190039060005260206000200160009091909190916101000a81548173ffffffffffffffffffffffffffffffffffffffff021916908373ffffffffffffffffffffffffffffffffffffffff1602179055508173ffffffffffffffffffffffffffffffffffffffff168373ffffffffffffffffffffffffffffffffffffffff167f68062c5925c4317adf3a7095478d28b33fd8b41458bc7620b61bc46bf1b24d82600284600160008873ffffffffffffffffffffffffffffffffffffffff1673ffffffffffffffffffffffffffffffffffffffff16815260200190815260200160002060060160008760ff1660ff16815260200190815260200160002060010180549050604051612f3493929190616aca565b60405180910390a381600160008573ffffffffffffffffffffffffffffffffffffffff1673ffffffffffffffffffffffffffffffffffffffff16815260200190815260200160002060060160008360ff1660ff16815260200190815260200160002060000160006101000a81548173ffffffffffffffffffffffffffffffffffffffff021916908373ffffffffffffffffffffffffffffffffffffffff160217905550612fdf610a96565b73ffffffffffffffffffffffffffffffffffffffff168273ffffffffffffffffffffffffffffffffffffffff1614156130245761301f8284600284614497565b614492565b6000600160008473ffffffffffffffffffffffffffffffffffffffff1673ffffffffffffffffffffffffffffffffffffffff16815260200190815260200160002060060160008360ff1660ff16815260200190815260200160002060000160009054906101000a900473ffffffffffffffffffffffffffffffffffffffff169050600160008273ffffffffffffffffffffffffffffffffffffffff1673ffffffffffffffffffffffffffffffffffffffff16815260200190815260200160002060060160008360ff1660ff168152602001908152602001600020600201849080600181540180825580915050600190039060005260206000200160009091909190916101000a81548173ffffffffffffffffffffffffffffffffffffffff021916908373ffffffffffffffffffffffffffffffffffffffff1602179055506000600160008373ffffffffffffffffffffffffffffffffffffffff1673ffffffffffffffffffffffffffffffffffffffff16815260200190815260200160002060060160008460ff1660ff1681526020019081526020016000206001018054905090506002811480156132c057508373ffffffffffffffffffffffffffffffffffffffff16600160008473ffffffffffffffffffffffffffffffffffffffff1673ffffffffffffffffffffffffffffffffffffffff16815260200190815260200160002060060160008560ff1660ff16815260200190815260200160002060010160008154811061327d577f4e487b7100000000000000000000000000000000000000000000000000000000600052603260045260246000fd5b9060005260206000200160009054906101000a900473ffffffffffffffffffffffffffffffffffffffff1673ffffffffffffffffffffffffffffffffffffffff16145b80156133b657508373ffffffffffffffffffffffffffffffffffffffff16600160008473ffffffffffffffffffffffffffffffffffffffff1673ffffffffffffffffffffffffffffffffffffffff16815260200190815260200160002060060160008560ff1660ff168152602001908152602001600020600101600181548110613373577f4e487b7100000000000000000000000000000000000000000000000000000000600052603260045260246000fd5b9060005260206000200160009054906101000a900473ffffffffffffffffffffffffffffffffffffffff1673ffffffffffffffffffffffffffffffffffffffff16145b156135035760018060008673ffffffffffffffffffffffffffffffffffffffff1673ffffffffffffffffffffffffffffffffffffffff16815260200190815260200160002060060160008560ff1660ff168152602001908152602001600020600101805490501415613492578173ffffffffffffffffffffffffffffffffffffffff168573ffffffffffffffffffffffffffffffffffffffff167f68062c5925c4317adf3a7095478d28b33fd8b41458bc7620b61bc46bf1b24d82600286600560405161348593929190616a5c565b60405180910390a36134fe565b8173ffffffffffffffffffffffffffffffffffffffff168573ffffffffffffffffffffffffffffffffffffffff167f68062c5925c4317adf3a7095478d28b33fd8b41458bc7620b61bc46bf1b24d8260028660066040516134f593929190616a93565b60405180910390a35b61399a565b60018114806135125750600281145b801561360857508373ffffffffffffffffffffffffffffffffffffffff16600160008473ffffffffffffffffffffffffffffffffffffffff1673ffffffffffffffffffffffffffffffffffffffff16815260200190815260200160002060060160008560ff1660ff1681526020019081526020016000206001016000815481106135c5577f4e487b7100000000000000000000000000000000000000000000000000000000600052603260045260246000fd5b9060005260206000200160009054906101000a900473ffffffffffffffffffffffffffffffffffffffff1673ffffffffffffffffffffffffffffffffffffffff16145b156137555760018060008673ffffffffffffffffffffffffffffffffffffffff1673ffffffffffffffffffffffffffffffffffffffff16815260200190815260200160002060060160008560ff1660ff1681526020019081526020016000206001018054905014156136e4578173ffffffffffffffffffffffffffffffffffffffff168573ffffffffffffffffffffffffffffffffffffffff167f68062c5925c4317adf3a7095478d28b33fd8b41458bc7620b61bc46bf1b24d8260028660036040516136d7939291906169ee565b60405180910390a3613750565b8173ffffffffffffffffffffffffffffffffffffffff168573ffffffffffffffffffffffffffffffffffffffff167f68062c5925c4317adf3a7095478d28b33fd8b41458bc7620b61bc46bf1b24d82600286600460405161374793929190616a25565b60405180910390a35b613999565b60028114801561384f57508373ffffffffffffffffffffffffffffffffffffffff16600160008473ffffffffffffffffffffffffffffffffffffffff1673ffffffffffffffffffffffffffffffffffffffff16815260200190815260200160002060060160008560ff1660ff16815260200190815260200160002060010160018154811061380c577f4e487b7100000000000000000000000000000000000000000000000000000000600052603260045260246000fd5b9060005260206000200160009054906101000a900473ffffffffffffffffffffffffffffffffffffffff1673ffffffffffffffffffffffffffffffffffffffff16145b156139985760018060008673ffffffffffffffffffffffffffffffffffffffff1673ffffffffffffffffffffffffffffffffffffffff16815260200190815260200160002060060160008560ff1660ff16815260200190815260200160002060010180549050141561392b578173ffffffffffffffffffffffffffffffffffffffff168573ffffffffffffffffffffffffffffffffffffffff167f68062c5925c4317adf3a7095478d28b33fd8b41458bc7620b61bc46bf1b24d82600286600560405161391e93929190616a5c565b60405180910390a3613997565b8173ffffffffffffffffffffffffffffffffffffffff168573ffffffffffffffffffffffffffffffffffffffff167f68062c5925c4317adf3a7095478d28b33fd8b41458bc7620b61bc46bf1b24d82600286600660405161398e93929190616a93565b60405180910390a35b5b5b5b6139a5858385614749565b5050614492565b600160008373ffffffffffffffffffffffffffffffffffffffff1673ffffffffffffffffffffffffffffffffffffffff16815260200190815260200160002060060160008260ff1660ff168152602001908152602001600020600201839080600181540180825580915050600190039060005260206000200160009091909190916101000a81548173ffffffffffffffffffffffffffffffffffffffff021916908373ffffffffffffffffffffffffffffffffffffffff160217905550600073ffffffffffffffffffffffffffffffffffffffff16600160008473ffffffffffffffffffffffffffffffffffffffff1673ffffffffffffffffffffffffffffffffffffffff16815260200190815260200160002060060160008360ff1660ff16815260200190815260200160002060050160009054906101000a900473ffffffffffffffffffffffffffffffffffffffff1673ffffffffffffffffffffffffffffffffffffffff161461400357600160008373ffffffffffffffffffffffffffffffffffffffff1673ffffffffffffffffffffffffffffffffffffffff16815260200190815260200160002060060160008260ff1660ff168152602001908152602001600020600101600181548110613bae577f4e487b7100000000000000000000000000000000000000000000000000000000600052603260045260246000fd5b9060005260206000200160009054906101000a900473ffffffffffffffffffffffffffffffffffffffff1673ffffffffffffffffffffffffffffffffffffffff16600160008473ffffffffffffffffffffffffffffffffffffffff1673ffffffffffffffffffffffffffffffffffffffff16815260200190815260200160002060060160008360ff1660ff168152602001908152602001600020600101600081548110613c84577f4e487b7100000000000000000000000000000000000000000000000000000000600052603260045260246000fd5b9060005260206000200160009054906101000a900473ffffffffffffffffffffffffffffffffffffffff1673ffffffffffffffffffffffffffffffffffffffff16148015613e385750600160008373ffffffffffffffffffffffffffffffffffffffff1673ffffffffffffffffffffffffffffffffffffffff16815260200190815260200160002060060160008260ff1660ff16815260200190815260200160002060050160009054906101000a900473ffffffffffffffffffffffffffffffffffffffff1673ffffffffffffffffffffffffffffffffffffffff16600160008473ffffffffffffffffffffffffffffffffffffffff1673ffffffffffffffffffffffffffffffffffffffff16815260200190815260200160002060060160008360ff1660ff168152602001908152602001600020600101600081548110613df5577f4e487b7100000000000000000000000000000000000000000000000000000000600052603260045260246000fd5b9060005260206000200160009054906101000a900473ffffffffffffffffffffffffffffffffffffffff1673ffffffffffffffffffffffffffffffffffffffff16145b15613e5a57613e4a838383600161521a565b613e55838383614749565b614492565b600160008373ffffffffffffffffffffffffffffffffffffffff1673ffffffffffffffffffffffffffffffffffffffff16815260200190815260200160002060060160008260ff1660ff16815260200190815260200160002060050160009054906101000a900473ffffffffffffffffffffffffffffffffffffffff1673ffffffffffffffffffffffffffffffffffffffff16600160008473ffffffffffffffffffffffffffffffffffffffff1673ffffffffffffffffffffffffffffffffffffffff16815260200190815260200160002060060160008360ff1660ff168152602001908152602001600020600101600081548110613f82577f4e487b7100000000000000000000000000000000000000000000000000000000600052603260045260246000fd5b9060005260206000200160009054906101000a900473ffffffffffffffffffffffffffffffffffffffff1673ffffffffffffffffffffffffffffffffffffffff161415613fe657613fd6838383600161521a565b613fe1838383614749565b614492565b613ff3838383600061521a565b613ffe838383614749565b614492565b8273ffffffffffffffffffffffffffffffffffffffff16600160008473ffffffffffffffffffffffffffffffffffffffff1673ffffffffffffffffffffffffffffffffffffffff16815260200190815260200160002060060160008360ff1660ff1681526020019081526020016000206001016001815481106140af577f4e487b7100000000000000000000000000000000000000000000000000000000600052603260045260246000fd5b9060005260206000200160009054906101000a900473ffffffffffffffffffffffffffffffffffffffff1673ffffffffffffffffffffffffffffffffffffffff16141561411357614103838383600061521a565b61410e838383614749565b614492565b8273ffffffffffffffffffffffffffffffffffffffff16600160008473ffffffffffffffffffffffffffffffffffffffff1673ffffffffffffffffffffffffffffffffffffffff16815260200190815260200160002060060160008360ff1660ff1681526020019081526020016000206001016000815481106141bf577f4e487b7100000000000000000000000000000000000000000000000000000000600052603260045260246000fd5b9060005260206000200160009054906101000a900473ffffffffffffffffffffffffffffffffffffffff1673ffffffffffffffffffffffffffffffffffffffff16141561422357614213838383600161521a565b61421e838383614749565b614492565b60016000600160008573ffffffffffffffffffffffffffffffffffffffff1673ffffffffffffffffffffffffffffffffffffffff16815260200190815260200160002060060160008460ff1660ff1681526020019081526020016000206001016001815481106142bc577f4e487b7100000000000000000000000000000000000000000000000000000000600052603260045260246000fd5b9060005260206000200160009054906101000a900473ffffffffffffffffffffffffffffffffffffffff1673ffffffffffffffffffffffffffffffffffffffff1673ffffffffffffffffffffffffffffffffffffffff16815260200190815260200160002060060160008260ff1660ff1681526020019081526020016000206001018054905060016000600160008673ffffffffffffffffffffffffffffffffffffffff1673ffffffffffffffffffffffffffffffffffffffff16815260200190815260200160002060060160008560ff1660ff1681526020019081526020016000206001016000815481106143db577f4e487b7100000000000000000000000000000000000000000000000000000000600052603260045260246000fd5b9060005260206000200160009054906101000a900473ffffffffffffffffffffffffffffffffffffffff1673ffffffffffffffffffffffffffffffffffffffff1673ffffffffffffffffffffffffffffffffffffffff16815260200190815260200160002060060160008360ff1660ff168152602001908152602001600020600101805490501161447857614473838383600061521a565b614486565b614485838383600161521a565b5b614491838383614749565b5b505050565b6000806144a8868686866000615f8d565b91509150600760009054906101000a900473ffffffffffffffffffffffffffffffffffffffff1673ffffffffffffffffffffffffffffffffffffffff1663a9059cbb83600660008760ff1660ff168152602001908152602001600020546040518363ffffffff1660e01b81526004016145229291906168cf565b602060405180830381600087803b15801561453c57600080fd5b505af1158015614550573d6000803e3d6000fd5b505050506040513d601f19601f820116820180604052508101906145749190616407565b6146d357600760009054906101000a900473ffffffffffffffffffffffffffffffffffffffff1673ffffffffffffffffffffffffffffffffffffffff1663a9059cbb83600760009054906101000a900473ffffffffffffffffffffffffffffffffffffffff1673ffffffffffffffffffffffffffffffffffffffff166370a08231306040518263ffffffff1660e01b815260040161461291906167b5565b60206040518083038186803b15801561462a57600080fd5b505afa15801561463e573d6000803e3d6000fd5b505050506040513d601f19601f820116820180604052508101906146629190616459565b6040518363ffffffff1660e01b815260040161467f9291906168cf565b602060405180830381600087803b15801561469957600080fd5b505af11580156146ad573d6000803e3d6000fd5b505050506040513d601f19601f820116820180604052508101906146d19190616407565b505b8015614741578173ffffffffffffffffffffffffffffffffffffffff168573ffffffffffffffffffffffffffffffffffffffff167ff0ddc65c0d411f042f723dcfa1b7d13e85a35b7b70761d447c6500411cacf3288686604051614738929190616cee565b60405180910390a35b505050505050565b6004600160008473ffffffffffffffffffffffffffffffffffffffff1673ffffffffffffffffffffffffffffffffffffffff16815260200190815260200160002060060160008360ff1660ff1681526020019081526020016000206002018054905010156147c3576147be8284600284614497565b615215565b600060016000600160008673ffffffffffffffffffffffffffffffffffffffff1673ffffffffffffffffffffffffffffffffffffffff16815260200190815260200160002060060160008560ff1660ff16815260200190815260200160002060000160009054906101000a900473ffffffffffffffffffffffffffffffffffffffff1673ffffffffffffffffffffffffffffffffffffffff1673ffffffffffffffffffffffffffffffffffffffff16815260200190815260200160002060060160008360ff1660ff16815260200190815260200160002060010180548060200260200160405190810160405280929190818152602001828054801561491d57602002820191906000526020600020905b8160009054906101000a900473ffffffffffffffffffffffffffffffffffffffff1673ffffffffffffffffffffffffffffffffffffffff16815260200190600101908083116148d3575b50505050509050600281511415614cd0578273ffffffffffffffffffffffffffffffffffffffff168160008151811061497f577f4e487b7100000000000000000000000000000000000000000000000000000000600052603260045260246000fd5b602002602001015173ffffffffffffffffffffffffffffffffffffffff161480614a1557508273ffffffffffffffffffffffffffffffffffffffff16816001815181106149f5577f4e487b7100000000000000000000000000000000000000000000000000000000600052603260045260246000fd5b602002602001015173ffffffffffffffffffffffffffffffffffffffff16145b15614b36578260016000600160008773ffffffffffffffffffffffffffffffffffffffff1673ffffffffffffffffffffffffffffffffffffffff16815260200190815260200160002060060160008660ff1660ff16815260200190815260200160002060000160009054906101000a900473ffffffffffffffffffffffffffffffffffffffff1673ffffffffffffffffffffffffffffffffffffffff1673ffffffffffffffffffffffffffffffffffffffff16815260200190815260200160002060060160008460ff1660ff16815260200190815260200160002060050160006101000a81548173ffffffffffffffffffffffffffffffffffffffff021916908373ffffffffffffffffffffffffffffffffffffffff160217905550614ccf565b600181511415614cce578273ffffffffffffffffffffffffffffffffffffffff1681600081518110614b91577f4e487b7100000000000000000000000000000000000000000000000000000000600052603260045260246000fd5b602002602001015173ffffffffffffffffffffffffffffffffffffffff161415614ccd578260016000600160008773ffffffffffffffffffffffffffffffffffffffff1673ffffffffffffffffffffffffffffffffffffffff16815260200190815260200160002060060160008660ff1660ff16815260200190815260200160002060000160009054906101000a900473ffffffffffffffffffffffffffffffffffffffff1673ffffffffffffffffffffffffffffffffffffffff1673ffffffffffffffffffffffffffffffffffffffff16815260200190815260200160002060060160008460ff1660ff16815260200190815260200160002060050160006101000a81548173ffffffffffffffffffffffffffffffffffffffff021916908373ffffffffffffffffffffffffffffffffffffffff1602179055505b5b5b5b600067ffffffffffffffff811115614d11577f4e487b7100000000000000000000000000000000000000000000000000000000600052604160045260246000fd5b604051908082528060200260200182016040528015614d3f5781602001602082028036833780820191505090505b50600160008573ffffffffffffffffffffffffffffffffffffffff1673ffffffffffffffffffffffffffffffffffffffff16815260200190815260200160002060060160008460ff1660ff1681526020019081526020016000206001019080519060200190614daf929190616292565b50600067ffffffffffffffff811115614df1577f4e487b7100000000000000000000000000000000000000000000000000000000600052604160045260246000fd5b604051908082528060200260200182016040528015614e1f5781602001602082028036833780820191505090505b50600160008573ffffffffffffffffffffffffffffffffffffffff1673ffffffffffffffffffffffffffffffffffffffff16815260200190815260200160002060060160008460ff1660ff1681526020019081526020016000206002019080519060200190614e8f929190616292565b506000600160008573ffffffffffffffffffffffffffffffffffffffff1673ffffffffffffffffffffffffffffffffffffffff16815260200190815260200160002060060160008460ff1660ff16815260200190815260200160002060050160006101000a81548173ffffffffffffffffffffffffffffffffffffffff021916908373ffffffffffffffffffffffffffffffffffffffff160217905550600160008473ffffffffffffffffffffffffffffffffffffffff1673ffffffffffffffffffffffffffffffffffffffff1681526020019081526020016000206004016000600184614f7d9190616d61565b60ff1660ff16815260200190815260200160002060009054906101000a900460ff16158015614fb35750600c60ff168260ff1614155b1561502d5760018060008573ffffffffffffffffffffffffffffffffffffffff1673ffffffffffffffffffffffffffffffffffffffff16815260200190815260200160002060060160008460ff1660ff16815260200190815260200160002060030160006101000a81548160ff0219169083151502179055505b600160008473ffffffffffffffffffffffffffffffffffffffff1673ffffffffffffffffffffffffffffffffffffffff16815260200190815260200160002060060160008360ff1660ff168152602001908152602001600020600401600081548092919061509a906170ad565b91905055506150a7610a96565b73ffffffffffffffffffffffffffffffffffffffff168373ffffffffffffffffffffffffffffffffffffffff16146151775760006150e584846118a7565b90508473ffffffffffffffffffffffffffffffffffffffff168173ffffffffffffffffffffffffffffffffffffffff168573ffffffffffffffffffffffffffffffffffffffff167fa00c953eff38ec1b71e7fe060b2ab8df0bbe5354319fbdde4fbdafd6324386a660028760405161515e9291906169c5565b60405180910390a4615171848285612ca8565b50615213565b8373ffffffffffffffffffffffffffffffffffffffff16600073ffffffffffffffffffffffffffffffffffffffff166151ae610a96565b73ffffffffffffffffffffffffffffffffffffffff167fa00c953eff38ec1b71e7fe060b2ab8df0bbe5354319fbdde4fbdafd6324386a66002866040516151f69291906169c5565b60405180910390a4615212615209610a96565b85600285614497565b5b505b505050565b806158d55760016000600160008673ffffffffffffffffffffffffffffffffffffffff1673ffffffffffffffffffffffffffffffffffffffff16815260200190815260200160002060060160008560ff1660ff1681526020019081526020016000206001016000815481106152b8577f4e487b7100000000000000000000000000000000000000000000000000000000600052603260045260246000fd5b9060005260206000200160009054906101000a900473ffffffffffffffffffffffffffffffffffffffff1673ffffffffffffffffffffffffffffffffffffffff1673ffffffffffffffffffffffffffffffffffffffff16815260200190815260200160002060060160008360ff1660ff168152602001908152602001600020600101849080600181540180825580915050600190039060005260206000200160009091909190916101000a81548173ffffffffffffffffffffffffffffffffffffffff021916908373ffffffffffffffffffffffffffffffffffffffff160217905550600160008473ffffffffffffffffffffffffffffffffffffffff1673ffffffffffffffffffffffffffffffffffffffff16815260200190815260200160002060060160008360ff1660ff168152602001908152602001600020600101600081548110615430577f4e487b7100000000000000000000000000000000000000000000000000000000600052603260045260246000fd5b9060005260206000200160009054906101000a900473ffffffffffffffffffffffffffffffffffffffff1673ffffffffffffffffffffffffffffffffffffffff168473ffffffffffffffffffffffffffffffffffffffff167f68062c5925c4317adf3a7095478d28b33fd8b41458bc7620b61bc46bf1b24d8260028560016000600160008b73ffffffffffffffffffffffffffffffffffffffff1673ffffffffffffffffffffffffffffffffffffffff16815260200190815260200160002060060160008a60ff1660ff168152602001908152602001600020600101600081548110615545577f4e487b7100000000000000000000000000000000000000000000000000000000600052603260045260246000fd5b9060005260206000200160009054906101000a900473ffffffffffffffffffffffffffffffffffffffff1673ffffffffffffffffffffffffffffffffffffffff1673ffffffffffffffffffffffffffffffffffffffff16815260200190815260200160002060060160008860ff1660ff168152602001908152602001600020600101805490506040516155da93929190616aca565b60405180910390a38273ffffffffffffffffffffffffffffffffffffffff168473ffffffffffffffffffffffffffffffffffffffff167f68062c5925c4317adf3a7095478d28b33fd8b41458bc7620b61bc46bf1b24d8260028560016000600160008b73ffffffffffffffffffffffffffffffffffffffff1673ffffffffffffffffffffffffffffffffffffffff16815260200190815260200160002060060160008a60ff1660ff1681526020019081526020016000206001016000815481106156cd577f4e487b7100000000000000000000000000000000000000000000000000000000600052603260045260246000fd5b9060005260206000200160009054906101000a900473ffffffffffffffffffffffffffffffffffffffff1673ffffffffffffffffffffffffffffffffffffffff1673ffffffffffffffffffffffffffffffffffffffff16815260200190815260200160002060060160008860ff1660ff16815260200190815260200160002060010180549050600261575f9190616d61565b60405161576e93929190616aca565b60405180910390a3600160008473ffffffffffffffffffffffffffffffffffffffff1673ffffffffffffffffffffffffffffffffffffffff16815260200190815260200160002060060160008360ff1660ff16815260200190815260200160002060010160008154811061580b577f4e487b7100000000000000000000000000000000000000000000000000000000600052603260045260246000fd5b9060005260206000200160009054906101000a900473ffffffffffffffffffffffffffffffffffffffff16600160008673ffffffffffffffffffffffffffffffffffffffff1673ffffffffffffffffffffffffffffffffffffffff16815260200190815260200160002060060160008460ff1660ff16815260200190815260200160002060000160006101000a81548173ffffffffffffffffffffffffffffffffffffffff021916908373ffffffffffffffffffffffffffffffffffffffff160217905550615f87565b60016000600160008673ffffffffffffffffffffffffffffffffffffffff1673ffffffffffffffffffffffffffffffffffffffff16815260200190815260200160002060060160008560ff1660ff16815260200190815260200160002060010160018154811061596e577f4e487b7100000000000000000000000000000000000000000000000000000000600052603260045260246000fd5b9060005260206000200160009054906101000a900473ffffffffffffffffffffffffffffffffffffffff1673ffffffffffffffffffffffffffffffffffffffff1673ffffffffffffffffffffffffffffffffffffffff16815260200190815260200160002060060160008360ff1660ff168152602001908152602001600020600101849080600181540180825580915050600190039060005260206000200160009091909190916101000a81548173ffffffffffffffffffffffffffffffffffffffff021916908373ffffffffffffffffffffffffffffffffffffffff160217905550600160008473ffffffffffffffffffffffffffffffffffffffff1673ffffffffffffffffffffffffffffffffffffffff16815260200190815260200160002060060160008360ff1660ff168152602001908152602001600020600101600181548110615ae6577f4e487b7100000000000000000000000000000000000000000000000000000000600052603260045260246000fd5b9060005260206000200160009054906101000a900473ffffffffffffffffffffffffffffffffffffffff1673ffffffffffffffffffffffffffffffffffffffff168473ffffffffffffffffffffffffffffffffffffffff167f68062c5925c4317adf3a7095478d28b33fd8b41458bc7620b61bc46bf1b24d8260028560016000600160008b73ffffffffffffffffffffffffffffffffffffffff1673ffffffffffffffffffffffffffffffffffffffff16815260200190815260200160002060060160008a60ff1660ff168152602001908152602001600020600101600181548110615bfb577f4e487b7100000000000000000000000000000000000000000000000000000000600052603260045260246000fd5b9060005260206000200160009054906101000a900473ffffffffffffffffffffffffffffffffffffffff1673ffffffffffffffffffffffffffffffffffffffff1673ffffffffffffffffffffffffffffffffffffffff16815260200190815260200160002060060160008860ff1660ff16815260200190815260200160002060010180549050604051615c9093929190616aca565b60405180910390a38273ffffffffffffffffffffffffffffffffffffffff168473ffffffffffffffffffffffffffffffffffffffff167f68062c5925c4317adf3a7095478d28b33fd8b41458bc7620b61bc46bf1b24d8260028560016000600160008b73ffffffffffffffffffffffffffffffffffffffff1673ffffffffffffffffffffffffffffffffffffffff16815260200190815260200160002060060160008a60ff1660ff168152602001908152602001600020600101600181548110615d83577f4e487b7100000000000000000000000000000000000000000000000000000000600052603260045260246000fd5b9060005260206000200160009054906101000a900473ffffffffffffffffffffffffffffffffffffffff1673ffffffffffffffffffffffffffffffffffffffff1673ffffffffffffffffffffffffffffffffffffffff16815260200190815260200160002060060160008860ff1660ff168152602001908152602001600020600101805490506004615e159190616d61565b604051615e2493929190616aca565b60405180910390a3600160008473ffffffffffffffffffffffffffffffffffffffff1673ffffffffffffffffffffffffffffffffffffffff16815260200190815260200160002060060160008360ff1660ff168152602001908152602001600020600101600181548110615ec1577f4e487b7100000000000000000000000000000000000000000000000000000000600052603260045260246000fd5b9060005260206000200160009054906101000a900473ffffffffffffffffffffffffffffffffffffffff16600160008673ffffffffffffffffffffffffffffffffffffffff1673ffffffffffffffffffffffffffffffffffffffff16815260200190815260200160002060060160008460ff1660ff16815260200190815260200160002060000160006101000a81548173ffffffffffffffffffffffffffffffffffffffff021916908373ffffffffffffffffffffffffffffffffffffffff1602179055505b50505050565b60008060018560ff16141561611457600160008873ffffffffffffffffffffffffffffffffffffffff1673ffffffffffffffffffffffffffffffffffffffff16815260200190815260200160002060050160008560ff1660ff16815260200190815260200160002060020160009054906101000a900460ff1615616109578573ffffffffffffffffffffffffffffffffffffffff168773ffffffffffffffffffffffffffffffffffffffff167ffc0cb63f8dbd6b20ceb84a3c5358a41576a1479e6ecd040b4b985525dc09a70960018760405161606b92919061692e565b60405180910390a3600160008873ffffffffffffffffffffffffffffffffffffffff1673ffffffffffffffffffffffffffffffffffffffff16815260200190815260200160002060050160008560ff1660ff16815260200190815260200160002060000160009054906101000a900473ffffffffffffffffffffffffffffffffffffffff169650616100878787876001615f8d565b91509150616288565b868391509150616288565b600160008873ffffffffffffffffffffffffffffffffffffffff1673ffffffffffffffffffffffffffffffffffffffff16815260200190815260200160002060060160008560ff1660ff16815260200190815260200160002060030160009054906101000a900460ff1615616281578573ffffffffffffffffffffffffffffffffffffffff168773ffffffffffffffffffffffffffffffffffffffff167ffc0cb63f8dbd6b20ceb84a3c5358a41576a1479e6ecd040b4b985525dc09a7096002876040516161e39291906169c5565b60405180910390a3600160008873ffffffffffffffffffffffffffffffffffffffff1673ffffffffffffffffffffffffffffffffffffffff16815260200190815260200160002060060160008560ff1660ff16815260200190815260200160002060000160009054906101000a900473ffffffffffffffffffffffffffffffffffffffff169650616278878787876001615f8d565b91509150616288565b8683915091505b9550959350505050565b82805482825590600052602060002090810192821561630b579160200282015b8281111561630a5782518260006101000a81548173ffffffffffffffffffffffffffffffffffffffff021916908373ffffffffffffffffffffffffffffffffffffffff160217905550916020019190600101906162b2565b5b509050616318919061631c565b5090565b5b8082111561633557600081600090555060010161631d565b5090565b60008135905061634881617399565b92915050565b60008151905061635d816173b0565b92915050565b600081359050616372816173c7565b92915050565b600081519050616387816173c7565b92915050565b60008135905061639c816173de565b92915050565b6000602082840312156163b457600080fd5b60006163c284828501616339565b91505092915050565b600080604083850312156163de57600080fd5b60006163ec85828601616339565b92505060206163fd8582860161638d565b9150509250929050565b60006020828403121561641957600080fd5b60006164278482850161634e565b91505092915050565b60006020828403121561644257600080fd5b600061645084828501616363565b91505092915050565b60006020828403121561646b57600080fd5b600061647984828501616378565b91505092915050565b60006020828403121561649457600080fd5b60006164a28482850161638d565b91505092915050565b600080604083850312156164be57600080fd5b60006164cc8582860161638d565b92505060206164dd8582860161638d565b9150509250929050565b60006164f383836164ff565b60208301905092915050565b61650881616fc8565b82525050565b61651781616fc8565b82525050565b600061652882616d27565b6165328185616d3f565b935061653d83616d17565b8060005b8381101561656e57815161655588826164e7565b975061656083616d32565b925050600181019050616541565b5085935050505092915050565b61658481616fda565b82525050565b6165938161701d565b82525050565b6165a281617041565b82525050565b6165b181617053565b82525050565b6165c081617065565b82525050565b6165cf81617077565b82525050565b6165de81617089565b82525050565b6165ed8161709b565b82525050565b6000616600602583616d50565b915061660b82617161565b604082019050919050565b6000616623602683616d50565b915061662e826171b0565b604082019050919050565b6000616646600b83616d50565b9150616651826171ff565b602082019050919050565b6000616669600d83616d50565b915061667482617228565b602082019050919050565b600061668c600d83616d50565b915061669782617251565b602082019050919050565b60006166af600e83616d50565b91506166ba8261727a565b602082019050919050565b60006166d2602083616d50565b91506166dd826172a3565b602082019050919050565b60006166f5601383616d50565b9150616700826172cc565b602082019050919050565b6000616718601483616d50565b9150616723826172f5565b602082019050919050565b600061673b601f83616d50565b91506167468261731e565b602082019050919050565b600061675e601e83616d50565b915061676982617347565b602082019050919050565b6000616781601783616d50565b915061678c82617370565b602082019050919050565b6167a081617006565b82525050565b6167af81617010565b82525050565b60006020820190506167ca600083018461650e565b92915050565b60006040820190506167e5600083018561650e565b6167f2602083018461650e565b9392505050565b600060608201905061680e600083018661650e565b61681b602083018561650e565b6168286040830184616797565b949350505050565b600060a082019050616845600083018861650e565b8181036020830152616857818761651d565b9050818103604083015261686b818661651d565b905061687a606083018561657b565b616887608083018461650e565b9695505050505050565b60006060820190506168a6600083018661650e565b81810360208301526168b8818561651d565b90506168c7604083018461657b565b949350505050565b60006040820190506168e4600083018561650e565b6168f16020830184616797565b9392505050565b600060208201905061690d600083018461657b565b92915050565b6000602082019050616928600083018461658a565b92915050565b60006040820190506169436000830185616599565b61695060208301846167a6565b9392505050565b600060608201905061696c6000830186616599565b61697960208301856167a6565b61698660408301846165b7565b949350505050565b60006060820190506169a36000830186616599565b6169b060208301856167a6565b6169bd60408301846167a6565b949350505050565b60006040820190506169da60008301856165a8565b6169e760208301846167a6565b9392505050565b6000606082019050616a0360008301866165a8565b616a1060208301856167a6565b616a1d60408301846165b7565b949350505050565b6000606082019050616a3a60008301866165a8565b616a4760208301856167a6565b616a5460408301846165c6565b949350505050565b6000606082019050616a7160008301866165a8565b616a7e60208301856167a6565b616a8b60408301846165d5565b949350505050565b6000606082019050616aa860008301866165a8565b616ab560208301856167a6565b616ac260408301846165e4565b949350505050565b6000606082019050616adf60008301866165a8565b616aec60208301856167a6565b616af960408301846167a6565b949350505050565b60006020820190508181036000830152616b1a816165f3565b9050919050565b60006020820190508181036000830152616b3a81616616565b9050919050565b60006020820190508181036000830152616b5a81616639565b9050919050565b60006020820190508181036000830152616b7a8161665c565b9050919050565b60006020820190508181036000830152616b9a8161667f565b9050919050565b60006020820190508181036000830152616bba816166a2565b9050919050565b60006020820190508181036000830152616bda816166c5565b9050919050565b60006020820190508181036000830152616bfa816166e8565b9050919050565b60006020820190508181036000830152616c1a8161670b565b9050919050565b60006020820190508181036000830152616c3a8161672e565b9050919050565b60006020820190508181036000830152616c5a81616751565b9050919050565b60006020820190508181036000830152616c7a81616774565b9050919050565b6000602082019050616c966000830184616797565b92915050565b6000606082019050616cb16000830186616797565b616cbe602083018561650e565b616ccb6040830184616797565b949350505050565b6000602082019050616ce860008301846167a6565b92915050565b6000604082019050616d0360008301856167a6565b616d1060208301846167a6565b9392505050565b6000819050602082019050919050565b600081519050919050565b6000602082019050919050565b600082825260208201905092915050565b600082825260208201905092915050565b6000616d6c82617010565b9150616d7783617010565b92508260ff03821115616d8d57616d8c6170f6565b5b828201905092915050565b6000616da382617006565b9150616dae83617006565b925082616dbe57616dbd617125565b5b828204905092915050565b6000808291508390505b6001851115616e1357808604811115616def57616dee6170f6565b5b6001851615616dfe5780820291505b8081029050616e0c85617154565b9450616dd3565b94509492505050565b6000616e2782617006565b9150616e3283617010565b9250616e5f7fffffffffffffffffffffffffffffffffffffffffffffffffffffffffffffffff8484616e67565b905092915050565b600082616e775760019050616f33565b81616e855760009050616f33565b8160018114616e9b5760028114616ea557616ed4565b6001915050616f33565b60ff841115616eb757616eb66170f6565b5b8360020a915084821115616ece57616ecd6170f6565b5b50616f33565b5060208310610133831016604e8410600b8410161715616f095782820a905083811115616f0457616f036170f6565b5b616f33565b616f168484846001616dc9565b92509050818404811115616f2d57616f2c6170f6565b5b81810290505b9392505050565b6000616f4582617006565b9150616f5083617006565b9250817fffffffffffffffffffffffffffffffffffffffffffffffffffffffffffffffff0483118215151615616f8957616f886170f6565b5b828202905092915050565b6000616f9f82617010565b9150616faa83617010565b925082821015616fbd57616fbc6170f6565b5b828203905092915050565b6000616fd382616fe6565b9050919050565b60008115159050919050565b600073ffffffffffffffffffffffffffffffffffffffff82169050919050565b6000819050919050565b600060ff82169050919050565b60006170288261702f565b9050919050565b600061703a82616fe6565b9050919050565b600061704c82617010565b9050919050565b600061705e82617010565b9050919050565b600061707082617010565b9050919050565b600061708282617010565b9050919050565b600061709482617010565b9050919050565b60006170a682617010565b9050919050565b60006170b882617006565b91507fffffffffffffffffffffffffffffffffffffffffffffffffffffffffffffffff8214156170eb576170ea6170f6565b5b600182019050919050565b7f4e487b7100000000000000000000000000000000000000000000000000000000600052601160045260246000fd5b7f4e487b7100000000000000000000000000000000000000000000000000000000600052601260045260246000fd5b60008160011c9050919050565b7f7573657220646f6573206e6f74206578697374732e205265676973746572206660008201527f697273742e000000000000000000000000000000000000000000000000000000602082015250565b7f4f776e61626c653a206e6577206f776e657220697320746865207a65726f206160008201527f6464726573730000000000000000000000000000000000000000000000000000602082015250565b7f7573657220657869737473000000000000000000000000000000000000000000600082015250565b7f696e76616c6964206c6576656c00000000000000000000000000000000000000600082015250565b7f696e76616c696420707269636500000000000000000000000000000000000000600082015250565b7f696e76616c6964206d6174726978000000000000000000000000000000000000600082015250565b7f4f776e61626c653a2063616c6c6572206973206e6f7420746865206f776e6572600082015250565b7f7265666572726572206e6f742065786973747300000000000000000000000000600082015250565b7f63616e6e6f74206265206120636f6e7472616374000000000000000000000000600082015250565b7f3530302e205265666572726572206c6576656c20697320696e61637469766500600082015250565b7f726567697374726174696f6e20636f7374206e6f7420617070726f7665640000600082015250565b7f6c6576656c20616c726561647920616374697661746564000000000000000000600082015250565b6173a281616fc8565b81146173ad57600080fd5b50565b6173b981616fda565b81146173c457600080fd5b50565b6173d081617006565b81146173db57600080fd5b50565b6173e781617010565b81146173f257600080fd5b5056fea26469706673582212200e47926730e98d6cfa2c9a0f71852ecb4069e55b7d16c4f9d4d3104c85de454964736f6c63430008040033",
    "immutableReferences": {},
    "source": "/**\r\n *Submitted for verification at Etherscan.io on 2020-01-31\r\n*/\r\n\r\n/**\r\n*\r\n*   ,d8888b                                                    \r\n*   88P'                                                       \r\n*d888888P                                                      \r\n*  ?88'     d8888b   88bd88b .d888b, d888b8b   d888b8b   d8888b\r\n*  88P     d8P' ?88  88P'  ` ?8b,   d8P' ?88  d8P' ?88  d8b_,dP\r\n* d88      88b  d88 d88        `?8b 88b  ,88b 88b  ,88b 88b    \r\n*d88'      `?8888P'd88'     `?888P' `?88P'`88b`?88P'`88b`?888P'\r\n*                                                    )88       \r\n*                                                   ,88P       \r\n*                                               `?8888P        \r\n*\r\n* \r\n* SmartWay Forsage\r\n* https://forsage.smartway.run\r\n* (only for SmartWay.run members)\r\n* \r\n**/\r\n\r\n\r\npragma solidity ^0.8.0;\r\n\r\nimport \"@openzeppelin/contracts/token/ERC20/ERC20.sol\";\r\nimport \"@openzeppelin/contracts/utils/math/SafeMath.sol\";\r\nimport \"@openzeppelin/contracts/utils/Address.sol\";\r\nimport \"@openzeppelin/contracts/access/Ownable.sol\";\r\nimport \"@openzeppelin/contracts/utils/Context.sol\";\r\n\r\ncontract ForsageBUSD is Context, Ownable{\r\n    using SafeMath for uint256;\r\n    using Address for address;\r\n    \r\n    struct User {\r\n        uint id;\r\n        address referrer;\r\n        uint partnersCount;\r\n        \r\n        mapping(uint8 => bool) activeX3Levels;\r\n        mapping(uint8 => bool) activeX6Levels;\r\n        \r\n        mapping(uint8 => X3) x3Matrix;\r\n        mapping(uint8 => X6) x6Matrix;\r\n    }\r\n    \r\n    struct X3 {\r\n        address currentReferrer;\r\n        address[] referrals;\r\n        bool blocked;\r\n        uint reinvestCount;\r\n    }\r\n    \r\n    struct X6 {\r\n        address currentReferrer;\r\n        address[] firstLevelReferrals;\r\n        address[] secondLevelReferrals;\r\n        bool blocked;\r\n        uint reinvestCount;\r\n\r\n        address closedPart;\r\n    }\r\n\r\n    uint8 public constant LAST_LEVEL = 12;\r\n    \r\n    mapping(address => User) public users;\r\n    mapping(uint => address) public idToAddress;\r\n    mapping(uint => address) public userIds;\r\n    mapping(address => uint) public balances; \r\n\r\n    uint public lastUserId = 2;\r\n    \r\n    mapping(uint8 => uint) public levelPrice;\r\n\r\n    ERC20 public bUsdInterface;\r\n    uint8 public constant BUSD_DECIMALS = 18;\r\n    uint256 public constant REG_COST = 10 * 10**BUSD_DECIMALS;\r\n    \r\n    event Registration(address indexed user, address indexed referrer, uint indexed userId, uint referrerId);\r\n    event Reinvest(address indexed user, address indexed currentReferrer, address indexed caller, uint8 matrix, uint8 level);\r\n    event Upgrade(address indexed user, address indexed referrer, uint8 matrix, uint8 level);\r\n    event NewUserPlace(address indexed user, address indexed referrer, uint8 matrix, uint8 level, uint8 place);\r\n    event MissedEthReceive(address indexed receiver, address indexed from, uint8 matrix, uint8 level);\r\n    event SentExtraEthDividends(address indexed from, address indexed receiver, uint8 matrix, uint8 level);\r\n    \r\n    \r\n    constructor() public {\r\n        levelPrice[1] = REG_COST.div(2);\r\n        for (uint8 i = 2; i <= LAST_LEVEL; i++) {\r\n            levelPrice[i] = levelPrice[i-1] * 2;\r\n        }\r\n        \r\n        User storage user = users[owner()];\r\n        user.id = 1;\r\n        user.referrer = address(0);\r\n        user.partnersCount = uint(0);\r\n        \r\n        idToAddress[1] = owner();\r\n        \r\n        for (uint8 i = 1; i <= LAST_LEVEL; i++) {\r\n            users[owner()].activeX3Levels[i] = true;\r\n            users[owner()].activeX6Levels[i] = true;\r\n        }\r\n        \r\n        userIds[1] = owner();\r\n    }\r\n\r\n    function initBusdInterface(address busdContractAddress) external onlyOwner {\r\n        bUsdInterface = ERC20(busdContractAddress);\r\n    }\r\n    /*\r\n    function() external payable {\r\n        if(msg.data.length == 0) {\r\n            return registration(_msgSender(), owner());\r\n        }\r\n        \r\n        registration(_msgSender(), bytesToAddress(msg.data));\r\n    }*/\r\n\r\n    function registrationExt(address referrerAddress) external {\r\n        registration(_msgSender(), referrerAddress);\r\n    }\r\n    \r\n    function buyNewLevel(uint8 matrix, uint8 level) external payable {\r\n        require(isUserExists(_msgSender()), \"user does not exists. Register first.\");\r\n        require(matrix == 1 || matrix == 2, \"invalid matrix\");\r\n        require(bUsdInterface.allowance(_msgSender(), address(this)) >= levelPrice[level], \"invalid price\");\r\n        require(level > 1 && level <= LAST_LEVEL, \"invalid level\");\r\n        bUsdInterface.transferFrom(_msgSender(), address(this), levelPrice[level]);\r\n\r\n        if (matrix == 1) {\r\n            require(!users[_msgSender()].activeX3Levels[level], \"level already activated\");\r\n\r\n            if (users[_msgSender()].x3Matrix[level-1].blocked) {\r\n                users[_msgSender()].x3Matrix[level-1].blocked = false;\r\n            }\r\n    \r\n            address freeX3Referrer = findFreeX3Referrer(_msgSender(), level);\r\n            users[_msgSender()].x3Matrix[level].currentReferrer = freeX3Referrer;\r\n            users[_msgSender()].activeX3Levels[level] = true;\r\n            updateX3Referrer(_msgSender(), freeX3Referrer, level);\r\n            \r\n            emit Upgrade(_msgSender(), freeX3Referrer, 1, level);\r\n\r\n        } else {\r\n            require(!users[_msgSender()].activeX6Levels[level], \"level already activated\"); \r\n\r\n            if (users[_msgSender()].x6Matrix[level-1].blocked) {\r\n                users[_msgSender()].x6Matrix[level-1].blocked = false;\r\n            }\r\n\r\n            address freeX6Referrer = findFreeX6Referrer(_msgSender(), level);\r\n            \r\n            users[_msgSender()].activeX6Levels[level] = true;\r\n            updateX6Referrer(_msgSender(), freeX6Referrer, level);\r\n            \r\n            emit Upgrade(_msgSender(), freeX6Referrer, 2, level);\r\n        }\r\n    }    \r\n    \r\n    function registration(address userAddress, address referrerAddress) private {\r\n        require(bUsdInterface.allowance(userAddress, address(this)) >= REG_COST, \"registration cost not approved\");\r\n        require(!isUserExists(userAddress), \"user exists\");\r\n        require(isUserExists(referrerAddress), \"referrer not exists\");\r\n        bUsdInterface.transferFrom(userAddress, address(this), REG_COST);\r\n        \r\n        uint32 size;\r\n        assembly {\r\n            size := extcodesize(userAddress)\r\n        }\r\n        require(size == 0, \"cannot be a contract\");\r\n\r\n        User storage user = users[userAddress];\r\n        user.id = lastUserId;\r\n        user.referrer = referrerAddress;\r\n        user.partnersCount = 0;\r\n        \r\n        idToAddress[lastUserId] = userAddress;\r\n        \r\n        user.referrer = referrerAddress;\r\n        \r\n        user.activeX3Levels[1] = true; \r\n        user.activeX6Levels[1] = true;\r\n        \r\n        \r\n        userIds[lastUserId] = userAddress;\r\n        lastUserId++;\r\n        \r\n        users[referrerAddress].partnersCount++;\r\n\r\n        address freeX3Referrer = findFreeX3Referrer(userAddress, 1);\r\n        users[userAddress].x3Matrix[1].currentReferrer = freeX3Referrer;\r\n        updateX3Referrer(userAddress, freeX3Referrer, 1);\r\n\r\n        updateX6Referrer(userAddress, findFreeX6Referrer(userAddress, 1), 1);\r\n        \r\n        emit Registration(userAddress, referrerAddress, users[userAddress].id, users[referrerAddress].id);\r\n    }\r\n    \r\n    function updateX3Referrer(address userAddress, address referrerAddress, uint8 level) private {\r\n        users[referrerAddress].x3Matrix[level].referrals.push(userAddress);\r\n\r\n        if (users[referrerAddress].x3Matrix[level].referrals.length < 3) {\r\n            emit NewUserPlace(userAddress, referrerAddress, 1, level, uint8(users[referrerAddress].x3Matrix[level].referrals.length));\r\n            return sendETHDividends(referrerAddress, userAddress, 1, level);\r\n        }\r\n        \r\n        emit NewUserPlace(userAddress, referrerAddress, 1, level, 3);\r\n        //close matrix\r\n        users[referrerAddress].x3Matrix[level].referrals = new address[](0);\r\n        if (!users[referrerAddress].activeX3Levels[level+1] && level != LAST_LEVEL) {\r\n            users[referrerAddress].x3Matrix[level].blocked = true;\r\n        }\r\n\r\n        //create new one by recursion\r\n        if (referrerAddress != owner()) {\r\n            //check referrer active level\r\n            address freeReferrerAddress = findFreeX3Referrer(referrerAddress, level);\r\n            if (users[referrerAddress].x3Matrix[level].currentReferrer != freeReferrerAddress) {\r\n                users[referrerAddress].x3Matrix[level].currentReferrer = freeReferrerAddress;\r\n            }\r\n            \r\n            users[referrerAddress].x3Matrix[level].reinvestCount++;\r\n            emit Reinvest(referrerAddress, freeReferrerAddress, userAddress, 1, level);\r\n            updateX3Referrer(referrerAddress, freeReferrerAddress, level);\r\n        } else {\r\n            sendETHDividends(owner(), userAddress, 1, level);\r\n            users[owner()].x3Matrix[level].reinvestCount++;\r\n            emit Reinvest(owner(), address(0), userAddress, 1, level);\r\n        }\r\n    }\r\n\r\n    function updateX6Referrer(address userAddress, address referrerAddress, uint8 level) private {\r\n        require(users[referrerAddress].activeX6Levels[level], \"500. Referrer level is inactive\");\r\n        \r\n        if (users[referrerAddress].x6Matrix[level].firstLevelReferrals.length < 2) {\r\n            users[referrerAddress].x6Matrix[level].firstLevelReferrals.push(userAddress);\r\n            emit NewUserPlace(userAddress, referrerAddress, 2, level, uint8(users[referrerAddress].x6Matrix[level].firstLevelReferrals.length));\r\n            \r\n            //set current level\r\n            users[userAddress].x6Matrix[level].currentReferrer = referrerAddress;\r\n\r\n            if (referrerAddress == owner()) {\r\n                return sendETHDividends(referrerAddress, userAddress, 2, level);\r\n            }\r\n            \r\n            address ref = users[referrerAddress].x6Matrix[level].currentReferrer;            \r\n            users[ref].x6Matrix[level].secondLevelReferrals.push(userAddress); \r\n            \r\n            uint len = users[ref].x6Matrix[level].firstLevelReferrals.length;\r\n            \r\n            if ((len == 2) && \r\n                (users[ref].x6Matrix[level].firstLevelReferrals[0] == referrerAddress) &&\r\n                (users[ref].x6Matrix[level].firstLevelReferrals[1] == referrerAddress)) {\r\n                if (users[referrerAddress].x6Matrix[level].firstLevelReferrals.length == 1) {\r\n                    emit NewUserPlace(userAddress, ref, 2, level, 5);\r\n                } else {\r\n                    emit NewUserPlace(userAddress, ref, 2, level, 6);\r\n                }\r\n            }  else if ((len == 1 || len == 2) &&\r\n                    users[ref].x6Matrix[level].firstLevelReferrals[0] == referrerAddress) {\r\n                if (users[referrerAddress].x6Matrix[level].firstLevelReferrals.length == 1) {\r\n                    emit NewUserPlace(userAddress, ref, 2, level, 3);\r\n                } else {\r\n                    emit NewUserPlace(userAddress, ref, 2, level, 4);\r\n                }\r\n            } else if (len == 2 && users[ref].x6Matrix[level].firstLevelReferrals[1] == referrerAddress) {\r\n                if (users[referrerAddress].x6Matrix[level].firstLevelReferrals.length == 1) {\r\n                    emit NewUserPlace(userAddress, ref, 2, level, 5);\r\n                } else {\r\n                    emit NewUserPlace(userAddress, ref, 2, level, 6);\r\n                }\r\n            }\r\n\r\n            return updateX6ReferrerSecondLevel(userAddress, ref, level);\r\n        }\r\n        \r\n        users[referrerAddress].x6Matrix[level].secondLevelReferrals.push(userAddress);\r\n\r\n        if (users[referrerAddress].x6Matrix[level].closedPart != address(0)) {\r\n            if ((users[referrerAddress].x6Matrix[level].firstLevelReferrals[0] == \r\n                users[referrerAddress].x6Matrix[level].firstLevelReferrals[1]) &&\r\n                (users[referrerAddress].x6Matrix[level].firstLevelReferrals[0] ==\r\n                users[referrerAddress].x6Matrix[level].closedPart)) {\r\n\r\n                updateX6(userAddress, referrerAddress, level, true);\r\n                return updateX6ReferrerSecondLevel(userAddress, referrerAddress, level);\r\n            } else if (users[referrerAddress].x6Matrix[level].firstLevelReferrals[0] == \r\n                users[referrerAddress].x6Matrix[level].closedPart) {\r\n                updateX6(userAddress, referrerAddress, level, true);\r\n                return updateX6ReferrerSecondLevel(userAddress, referrerAddress, level);\r\n            } else {\r\n                updateX6(userAddress, referrerAddress, level, false);\r\n                return updateX6ReferrerSecondLevel(userAddress, referrerAddress, level);\r\n            }\r\n        }\r\n\r\n        if (users[referrerAddress].x6Matrix[level].firstLevelReferrals[1] == userAddress) {\r\n            updateX6(userAddress, referrerAddress, level, false);\r\n            return updateX6ReferrerSecondLevel(userAddress, referrerAddress, level);\r\n        } else if (users[referrerAddress].x6Matrix[level].firstLevelReferrals[0] == userAddress) {\r\n            updateX6(userAddress, referrerAddress, level, true);\r\n            return updateX6ReferrerSecondLevel(userAddress, referrerAddress, level);\r\n        }\r\n        \r\n        if (users[users[referrerAddress].x6Matrix[level].firstLevelReferrals[0]].x6Matrix[level].firstLevelReferrals.length <= \r\n            users[users[referrerAddress].x6Matrix[level].firstLevelReferrals[1]].x6Matrix[level].firstLevelReferrals.length) {\r\n            updateX6(userAddress, referrerAddress, level, false);\r\n        } else {\r\n            updateX6(userAddress, referrerAddress, level, true);\r\n        }\r\n        \r\n        updateX6ReferrerSecondLevel(userAddress, referrerAddress, level);\r\n    }\r\n\r\n    function updateX6(address userAddress, address referrerAddress, uint8 level, bool x2) private {\r\n        if (!x2) {\r\n            users[users[referrerAddress].x6Matrix[level].firstLevelReferrals[0]].x6Matrix[level].firstLevelReferrals.push(userAddress);\r\n            emit NewUserPlace(userAddress, users[referrerAddress].x6Matrix[level].firstLevelReferrals[0], 2, level, uint8(users[users[referrerAddress].x6Matrix[level].firstLevelReferrals[0]].x6Matrix[level].firstLevelReferrals.length));\r\n            emit NewUserPlace(userAddress, referrerAddress, 2, level, 2 + uint8(users[users[referrerAddress].x6Matrix[level].firstLevelReferrals[0]].x6Matrix[level].firstLevelReferrals.length));\r\n            //set current level\r\n            users[userAddress].x6Matrix[level].currentReferrer = users[referrerAddress].x6Matrix[level].firstLevelReferrals[0];\r\n        } else {\r\n            users[users[referrerAddress].x6Matrix[level].firstLevelReferrals[1]].x6Matrix[level].firstLevelReferrals.push(userAddress);\r\n            emit NewUserPlace(userAddress, users[referrerAddress].x6Matrix[level].firstLevelReferrals[1], 2, level, uint8(users[users[referrerAddress].x6Matrix[level].firstLevelReferrals[1]].x6Matrix[level].firstLevelReferrals.length));\r\n            emit NewUserPlace(userAddress, referrerAddress, 2, level, 4 + uint8(users[users[referrerAddress].x6Matrix[level].firstLevelReferrals[1]].x6Matrix[level].firstLevelReferrals.length));\r\n            //set current level\r\n            users[userAddress].x6Matrix[level].currentReferrer = users[referrerAddress].x6Matrix[level].firstLevelReferrals[1];\r\n        }\r\n    }\r\n    \r\n    function updateX6ReferrerSecondLevel(address userAddress, address referrerAddress, uint8 level) private {\r\n        if (users[referrerAddress].x6Matrix[level].secondLevelReferrals.length < 4) {\r\n            return sendETHDividends(referrerAddress, userAddress, 2, level);\r\n        }\r\n        \r\n        address[] memory x6 = users[users[referrerAddress].x6Matrix[level].currentReferrer].x6Matrix[level].firstLevelReferrals;\r\n        \r\n        if (x6.length == 2) {\r\n            if (x6[0] == referrerAddress ||\r\n                x6[1] == referrerAddress) {\r\n                users[users[referrerAddress].x6Matrix[level].currentReferrer].x6Matrix[level].closedPart = referrerAddress;\r\n            } else if (x6.length == 1) {\r\n                if (x6[0] == referrerAddress) {\r\n                    users[users[referrerAddress].x6Matrix[level].currentReferrer].x6Matrix[level].closedPart = referrerAddress;\r\n                }\r\n            }\r\n        }\r\n        \r\n        users[referrerAddress].x6Matrix[level].firstLevelReferrals = new address[](0);\r\n        users[referrerAddress].x6Matrix[level].secondLevelReferrals = new address[](0);\r\n        users[referrerAddress].x6Matrix[level].closedPart = address(0);\r\n\r\n        if (!users[referrerAddress].activeX6Levels[level+1] && level != LAST_LEVEL) {\r\n            users[referrerAddress].x6Matrix[level].blocked = true;\r\n        }\r\n\r\n        users[referrerAddress].x6Matrix[level].reinvestCount++;\r\n        \r\n        if (referrerAddress != owner()) {\r\n            address freeReferrerAddress = findFreeX6Referrer(referrerAddress, level);\r\n\r\n            emit Reinvest(referrerAddress, freeReferrerAddress, userAddress, 2, level);\r\n            updateX6Referrer(referrerAddress, freeReferrerAddress, level);\r\n        } else {\r\n            emit Reinvest(owner(), address(0), userAddress, 2, level);\r\n            sendETHDividends(owner(), userAddress, 2, level);\r\n        }\r\n    }\r\n    \r\n    function findFreeX3Referrer(address userAddress, uint8 level) public view returns(address) {\r\n        if (users[users[userAddress].referrer].activeX3Levels[level]) {\r\n            return users[userAddress].referrer;\r\n            \r\n        } else {\r\n            return findFreeX3Referrer(users[userAddress].referrer, level);\r\n        }\r\n    }\r\n    \r\n    function findFreeX6Referrer(address userAddress, uint8 level) public view returns(address) {\r\n        if (users[users[userAddress].referrer].activeX6Levels[level]) {\r\n            return users[userAddress].referrer;\r\n\r\n        } else {\r\n            return findFreeX6Referrer(users[userAddress].referrer, level);\r\n        }\r\n    }\r\n        \r\n    function usersActiveX3Levels(address userAddress, uint8 level) public view returns(bool) {\r\n        return users[userAddress].activeX3Levels[level];\r\n    }\r\n\r\n    function usersActiveX6Levels(address userAddress, uint8 level) public view returns(bool) {\r\n        return users[userAddress].activeX6Levels[level];\r\n    }\r\n\r\n    function usersX3Matrix(address userAddress, uint8 level) public view returns(address, address[] memory, bool) {\r\n        return (users[userAddress].x3Matrix[level].currentReferrer,\r\n                users[userAddress].x3Matrix[level].referrals,\r\n                users[userAddress].x3Matrix[level].blocked);\r\n    }\r\n\r\n    function usersX6Matrix(address userAddress, uint8 level) public view returns(address, address[] memory, address[] memory, bool, address) {\r\n        return (users[userAddress].x6Matrix[level].currentReferrer,\r\n                users[userAddress].x6Matrix[level].firstLevelReferrals,\r\n                users[userAddress].x6Matrix[level].secondLevelReferrals,\r\n                users[userAddress].x6Matrix[level].blocked,\r\n                users[userAddress].x6Matrix[level].closedPart);\r\n    }\r\n    \r\n    function isUserExists(address user) public view returns (bool) {\r\n        return (users[user].id != 0);\r\n    }\r\n\r\n    function findEthReceiver(address userAddress, address _from, uint8 matrix, uint8 level, bool isExtraDividends) private returns(address, bool) {\r\n        \r\n        if (matrix == 1) {\r\n            if (users[userAddress].x3Matrix[level].blocked) {\r\n                emit MissedEthReceive(userAddress, _from, 1, level);\r\n\r\n                userAddress = users[userAddress].x3Matrix[level].currentReferrer;\r\n                return findEthReceiver(userAddress, _from, matrix, level, true);\r\n            } else {\r\n                return (userAddress, isExtraDividends);\r\n            }\r\n            \r\n        } else {\r\n            if (users[userAddress].x6Matrix[level].blocked) {\r\n                emit MissedEthReceive(userAddress, _from, 2, level);\r\n\r\n                userAddress = users[userAddress].x6Matrix[level].currentReferrer;\r\n                return findEthReceiver(userAddress, _from, matrix, level, true);\r\n            } else {\r\n                return (userAddress, isExtraDividends);\r\n            }\r\n        }\r\n    }\r\n\r\n    function sendETHDividends(address userAddress, address _from, uint8 matrix, uint8 level) private {\r\n        (address receiver, bool isExtraDividends) = findEthReceiver(userAddress, _from, matrix, level, false);\r\n\r\n        if(!bUsdInterface.transfer(receiver, levelPrice[level])) {\r\n            bUsdInterface.transfer(receiver, bUsdInterface.balanceOf(address(this)));\r\n        }/*\r\n        if (!address(uint160(receiver)).send(levelPrice[level])) {\r\n            return address(uint160(receiver)).transfer(address(this).balance);\r\n        }*/\r\n        \r\n        if (isExtraDividends) {\r\n            emit SentExtraEthDividends(_from, receiver, matrix, level);\r\n        }\r\n    }\r\n    \r\n    function bytesToAddress(bytes memory bys) private pure returns (address addr) {\r\n        assembly {\r\n            addr := mload(add(bys, 20))\r\n        }\r\n    }\r\n}",
    "sourcePath": "D:/cyberockvalley/SMART_CONTRACT/forsagebusd/contracts/ForsageBUSD.sol",
    "compiler": {
        "name": "solc",
        "version": "0.8.4+commit.c7e474f2.Emscripten.clang"
    },
    "schemaVersion": "3.4.0",
    "updatedAt": "2021-05-23T12:18:05.080Z",
    "devdoc": {
        "kind": "dev",
        "methods": {
            "owner()": {
                "details": "Returns the address of the current owner."
            },
            "renounceOwnership()": {
                "details": "Leaves the contract without owner. It will not be possible to call `onlyOwner` functions anymore. Can only be called by the current owner. NOTE: Renouncing ownership will leave the contract without an owner, thereby removing any functionality that is only available to the owner."
            },
            "transferOwnership(address)": {
                "details": "Transfers ownership of the contract to a new account (`newOwner`). Can only be called by the current owner."
            }
        },
        "version": 1
    },
    "userdoc": {
        "kind": "user",
        "methods": {},
        "version": 1
    }
}